:020000040800F2
:100000000848002049020008770800082D0300086E
:100010007508000881060008D50C000800000000E3
:10002000000000000000000000000000F9090008C6
:100030008306000800000000B7020008FD0A00085F
:1000400063020008630200086302000863020008FC
:1000500063020008630200086302000863020008EC
:1000600063020008850600086302000863020008B6
:1000700063020008630200086302000863020008CC
:1000800063020008630200086302000863020008BC
:1000900063020008630200086302000863020008AC
:1000A000630200086302000863020008630200089C
:1000B000630200086302000863020008630200088C
:1000C000630200086302000863020008630200087C
:1000D000630200086302000863020008630200086C
:1000E000630200086302000863020008630200085C
:1000F000630200086302000863020008630200084C
:10010000630200086302000863020008630200083B
:10011000630200086302000863020008630200082B
:10012000630200086302000863020008630200081B
:10013000630200086302000863020008630200080B
:1001400063020008630200086302000863020008FB
:1001500063020008630200086302000863020008EB
:1001600063020008630200086302000863020008DB
:1001700063020008630200086302000863020008CB
:1001800063020008630200086302000863020008BB
:1001900063020008630200086302000863020008AB
:1001A00063020008630200086302000800F002F81E
:1001B00000F03AF80AA090E8000C82448344AAF1C7
:1001C0000107DA4501D100F02FF8AFF2090EBAE8C5
:1001D0000F0013F0010F18BFFB1A43F0010318477B
:1001E000E052000000530000103A24BF78C878C1E4
:1001F000FAD8520724BF30C830C144BF04680C602D
:10020000704700000023002400250026103A28BF74
:1002100078C1FBD8520728BF30C148BF0B60704778
:100220001FB51FBD10B510BD00F0EBF91146FFF76B
:10023000F7FF00F020FA00F009FA03B4FFF7F2FF2D
:1002400003BC00F011FA0000094880470948004744
:10025000FEE7FEE7FEE7FEE7FEE7FEE7FEE7FEE776
:10026000FEE7FEE704480549054A064B70470000D3
:10027000890B0008AD010008084200200848002052
:100280000844002008440020EFF3108072B6704745
:1002900080F310887047324A1368012B04D04FF066
:1002A000010313602F4A10602F4A11602F484FF04E
:1002B000805101607047EFF3108272B628480168E0
:1002C00091B14FF0000101602648016829B1EFF3B8
:1002D000098121E9F00F0068016023490968096874
:1002E000B1E8F00F81F3098882F310884EF0040E14
:1002F00070471D4908601B494FF00000086018490D
:100300004FF0010008601A481A49D0F8002041EA6D
:100310000201016015484FF08051016016480068E5
:10032000006880F3088861B662B670471EF0040F5B
:100330000CBFEFF30880EFF3098020E9F00F40F8DD
:1003400004ED1EF0040F0CBF80F3088880F30988C9
:1003500000B502F055FB5DF804EB4EF0040E70475B
:1003600048000020400000204400002004ED00E090
:1003700020ED00E00000FFFF08ED00E040EA01038F
:10038000024630B59B0710D14FF0013400E008C29F
:1003900008C91D1B9D4315EAC41FF8D013F0FF01C7
:1003A00002F8011B0DD01B0AF8E711F8013B002BE6
:1003B00002F8013B05D011F8013B002B02F8013B8C
:1003C000F3D130BD10B5431C02E010F8011B71B130
:1003D0008107FAD14FF0013202C88C1A8C4314EA1B
:1003E000C211F9D0C01A0A0603D0C01E10BDC01A2F
:1003F00010BD0A0401D0801E10BD0902FCD0401EB1
:1004000010BD40EA010370B59B072ED14FF00136B5
:10041000042A2AD308C810C99D1B9D43121F15EA40
:10042000C61517D0D8B2E1B2401A50EA056110D112
:1004300098B2A1B2401A50EA05410AD123F07F4098
:1004400024F07F41401A50EA052102D1180EA0EB9A
:10045000146070BDA342DBD018BA21BA884201D91A
:10046000012070BD4FF0FF3070BD0AB9002070BD93
:1004700010F8013B11F8014B63B1A3420AD1521E9F
:1004800008D010F8013B11F8014B1BB1A34201D178
:10049000521EEDD1181B70BD421E12F8013F002BF9
:1004A000FBD111F8013B002B02F8013BF9D1704759
:1004B00010B5203AC0F00B80B1E81850203AA0E8FF
:1004C0001850B1E81850A0E81850BFF4F5AF5FEA33
:1004D000027C24BFB1E81850A0E8185044BF18C9E6
:1004E00018C0BDE810405FEA827C24BF51F8043B8D
:1004F00040F8043B08BF7047D20728BF31F8023BE1
:1005000048BF11F8012B28BF20F8023B48BF00F874
:10051000012B70474FF000020429C0F0128010F048
:10052000030C00F01B80CCF1040CBCF1020F18BFCF
:1005300000F8012BA8BF20F8022BA1EB0C0100F062
:100540000DB85FEAC17C24BF00F8012B00F8012B35
:1005500048BF00F8012B70474FF0000200B513466A
:1005600094469646203922BFA0E80C50A0E80C50D3
:10057000B1F12001BFF4F7AF090728BFA0E80C5084
:1005800048BF0CC05DF804EB890028BF40F8042B7D
:1005900008BF704748BF20F8022B11F0804F18BFEA
:1005A00000F8012B704710B5044610F0030F08BF88
:1005B00011F0030F40F015804FF0013E121FC0F202
:1005C0000E8051F8043BA3EB0E0C2CEA030C1CEA42
:1005D000CE1C08BF40F8043BF0D0A1F1040102F1A9
:1005E0000402521E08DB11F8013B002B00F8013B0E
:1005F000F7D11146FFF78EFF204610BD70477047B8
:100600007047754600F02CF8AE4605006946534623
:1006100020F00700854618B020B5FFF723FEBDE89F
:1006200020404FF000064FF000074FF000084FF059
:10063000000B21F00701AC46ACE8C009ACE8C009EA
:10064000ACE8C009ACE8C0098D46704710B5044657
:10065000AFF300802046BDE81040FFF7EEBD00007C
:1006600000487047A841002001491820ABBEFEE7B2
:1006700026000200704710B504F02EF8002010BDCF
:10068000FEE7704710B5082000F016F8002809D0E2
:100690000548016881F002010160BDE810400820B2
:1006A00000F004B810BD00001404024001490860C5
:1006B00070470000143C014001460020024A1268C5
:1006C0000A4200D001207047143C014030B51B4A5B
:1006D00083790168002B2AD013688B431360111DA6
:1006E0000B680468A3430B60017911440B6804682C
:1006F00023430B60114C083421680368994321603F
:10070000231D19680568A94319604179102905D08E
:1007100011440A68006802430A6030BD216802681B
:1007200011432160196800680143196030BD0079E8
:10073000104402688A43026030BD0000003C014062
:100740007FB50121802000F0E9F80121880300F045
:10075000F3F800F091F80825029500248DF80C407C
:1007600001268DF80F6002A9094800F013F8032153
:10077000072000F043F900958DF804400C208DF817
:1007800005008DF806606846FFF7A0FF7FBD0000FA
:10079000001C02402DE9F041002201274FF0030C1C
:1007A00007FA02F50B682B40AB422CD106685300C8
:1007B0000CFA03F4A64306600E79D0F800809E4040
:1007C00046EA080606600E79012E01D0022E12D1EB
:1007D0008668A64386604E79D0F808809E4046EA37
:1007E000080686604668AE43466045688E79964046
:1007F000B6B235434560C568A543C560CC799C4019
:10080000C3681C43C460521C102AC9D3BDE8F081E0
:1008100010B54B07DB0E9A40C90800EB8100016A56
:100820000F249C40A1430162016A1143016210BD83
:100830007CB50121022000F071F802250095012409
:100840008DF8044000208DF806008DF807408DF8E3
:100850000500074E69463046FFF79CFF0094694645
:100860003046FFF797FF02481830058004807CBDB2
:1008700000040240FEE7704708B54FF4C06000F086
:1008800043F809208DF8000001208DF801008DF853
:1008900002008DF80300684600F002F808BD000071
:1008A00030B50F23C27801250178002A1FD0154AE0
:1008B000126802F4E062C2F5E062C2F30722C2F1FC
:1008C0000404D3404278A24084781C40144322019F
:1008D00001F1E02181F80024007800F01F018D4033
:1008E0004009800000F1E020C0F8005130BD01F067
:1008F0001F0085404809800000F1E020C0F88051C9
:1009000030BD00000CED00E00249084302490860D8
:10091000704700000000FA050CED00E0054A0029D0
:1009200003D0116801431160704711688143116061
:100930007047000030380240054A002903D0116892
:1009400001431160704711688143116070470000D6
:100950004438024070B5244B196801F00C01234C57
:1009600000291ED0224E04291DD008291DD0046064
:10097000196801F0F00109091E4A545C0168E14060
:1009800041601C6804F4E054A40A145D21FA04F4E4
:1009900084601B6803F460435B0BD25CD140C16090
:1009A00070BD0460E4E70660E2E70F4A121F1168B9
:1009B000C1F38055116801F03F0135B1B6FBF1F18B
:1009C0001468C4F38814614305E0B4FBF1F11468C2
:1009D000C4F3881461431268C2F30142521C5200EE
:1009E000B1FBF2F10160C3E7083802400024F400D3
:1009F00040787D01140000207047000010B58A0780
:100A0000120F0F23934021F003040649214401F6FD
:100A100008010C689C430C600B68904003430B601A
:100A200010BD0000003001401CB500210191009173
:100A30002E4A106840F4803010604FF4A0431068D4
:100A400000F4003000900198401C0190009810B90B
:100A500001989842F3D11068800302D501200090DC
:100A600000E00091009801283FD120484030016803
:100A700041F0805101601E49086840F44040086020
:100A80001A48083003680360036843F400430360B6
:100A9000036843F4A0530360041F164B23601368DC
:100AA00043F08073136013689B01FCD50A6842F41D
:100AB00080320A604A68D203FCD50A6842F40032E8
:100AC0000A604A689203FCD50B4A40F20571116036
:100AD000016821F003010160016841F00201016039
:100AE0000168C1F381010229FAD11CBD003802401E
:100AF00000700040195A4007003C024002F026BC3A
:100B000070B51D4E306800F00C001C4B1C490028CD
:100B10000FD01C4D04280ED008280ED00B60306872
:100B2000174AC0F30310121D105C0A68C2400A6025
:100B300070BD0B60F3E70D60F1E70F4A121F1068FC
:100B4000C0F38054106800F03F0034B1B5FBF0F002
:100B50001368C3F38813584305E0B3FBF0F0136840
:100B6000C3F3881358431268C2F30142521C520067
:100B7000B0FBF2F00860D2E7083802400024F4002D
:100B80000000002040787D0110B50F48016841F059
:100B9000010101600C4A00210832116002680B4B10
:100BA0001A400260031D0A4A1A60026822F4802279
:100BB000026005480C300160FFF736FF05494FF031
:100BC0000060086010BD000000380240FFFFF6FE24
:100BD0001030002408ED00E08A05C9430180704709
:100BE000002904D0818941F40051818170478189B5
:100BF00021F40051818170470246002012880A4288
:100C000000D00120704700007FB504460D46208AC1
:100C100020F44051E88808432082A08941F20C6109
:100C20008843A9882A8911436A8902431143A18113
:100C3000A08A20F44071A8890843A0826846FFF783
:100C400089FE1E48844202D01D48844201D1039887
:100C500000E00298A189090408D500EBC00101EB6E
:100C6000001029684900B0FBF1F007E000EBC0017B
:100C700001EB001029688900B0FBF1F06422B0FBA1
:100C8000F2F109010B096FF018056B4300EB8300CB
:100C9000A3891D044FF0320307D503EBC000B0FB5E
:100CA000F2F000F00700084306E003EB0010B0FB91
:100CB000F2F000F00F00084320817FBD00100140DA
:100CC000001401408088C0F308007047C1F3080198
:100CD00081807047FEE70000002807D00F4910F020
:100CE000FF0F05D0C0B2085C401C70470020704761
:100CF00010F47F4F04D0C0F30720085C0930704720
:100D000010F47F0F04D0C0F30740085C1130704727
:100D100001EB106000781930704700004E4B00085E
:100D20002DE9F04188B005460F4616460024002DF7
:100D300005D140F237121A491AA001F041FC3EB920
:100D40004FF49C72164918A001F03AFC00E0641CB4
:100D5000295D202903D0092901D0BC42F7D34FF0E7
:100D6000FF38B4B12146284601F0CAF9044694B1CF
:100D700020216846FFF7F0FB6A463946284601F015
:100D800029FA50B16946A0473060002008B0BDE89C
:100D9000F0814046FAE74046F8E74046F6E70000B3
:100DA0008E480008636D6400726574700000000076
:100DB00010B50446002C04D15022114911A001F0B5
:100DC000FFFBA06A0178232906D1E169814203D99A
:100DD000E26A02448A420AD221460FA001F09AFF39
:100DE00000F0FAFEFFF750FA0028FDD110BD2030C8
:100DF0008142FBD82146BDE810400EA001F08ABF19
:100E00002C4D000874687265616420213D205254A5
:100E10005F4E554C4C0000007468726561643A2561
:100E20007320737461636B206F766572666C6F7785
:100E30000A0000007761726E696E673A20257320A0
:100E4000737461636B20697320636C6F73652074C6
:100E50006F20656E64206F6620737461636B206120
:100E60006464726573732E0A000000002DE9FC4172
:100E700009A91F4662C9089B044604F1140040609A
:100E8000006022626762A362E1620A46232118467B
:100E900002F0CAF8D4E90A014218D4E90801121F85
:100EA000114B01F0BBFEE061202D04D3A7220F49B6
:100EB0000FA001F085FB3034A57165710020A060A2
:100EC0006661A66120602071A064E064303C0090FF
:100ED000019023460F4A214604F14C0003F066F9C5
:100EE0000020BDE8FC810000CD3900087A4D0008E3
:100EF0007072696F72697479203C2052545F544853
:100F0000524541445F5052494F524954595F4D41F7
:100F100058000000F13D000810B5029C24F00104C7
:100F20004472C161026200218162436200EBC1022E
:100F3000143252601260491C0129F7DB10BD70B5F4
:100F40000546002405EBC400143001F041FF641C89
:100F5000012CF7DB70BD70B50446FFF795F9054627
:100F6000A16F09B1204688472846BDE87040FFF7C9
:100F70008FB9000010B51BA001F0CCFE1C4C2178ED
:100F80001CA001F0C7FE2078C00702D01FA001F00E
:100F9000C1FE2078800702D51FA001F0BBFE20789B
:100FA000400702D51FA001F0B5FE2078000702D54A
:100FB00020A001F0AFFE2078C00602D520A001F0ED
:100FC000A9FE2078000607D509480F300168BDE862
:100FD00010401DA001F09EBEBDE810401EA001F013
:100FE00099BE0000627573206661756C743A0A00E0
:100FF00029ED00E05343425F434653525F4246535C
:10100000523A30782530325820000000494255537A
:10101000455252200000000050524543495345526A
:1010200052200000494D50524543495345525220E9
:1010300000000000554E53544B4552522000000012
:1010400053544B45525220005343422D3E42464199
:10105000523A253038580A000A00000010B500F056
:10106000E3FB002010BD10B500F0B6FD002010BD60
:1010700010B51348416991F82110890704D411492A
:1010800000200870084610BD016931B14FF480722C
:101090000C48FFF788FA0B4810BD01F099F820B111
:1010A00009A10848FFF76AF903E009A10548FFF71D
:1010B00065F909A10348FFF7EFF9024810BD0000E8
:1010C00024000020040100206D736820000000004F
:1010D00066696E73682000003E00000001F04EBC9F
:1010E00070B50446074D6969002904D1A422064958
:1010F00006A001F065FA696911F8210F64F3410057
:10110000087070BD24000020C44800087368656C36
:101110006C20213D2052545F4E554C4C0000000085
:10112000014A106051607047240000207CB51649C8
:101130001648FFF7F5FF7821012001F079FA144DE8
:101140006861D0B10A201521CDE900104FF4806309
:101150000022104910A002F012FC044600231A4697
:101160000FA1686902F0ACF90120FFF7B9FF14B1D3
:10117000204602F09FFD00207CBD0BA001F0CAFDBF
:101180004FF0FF307CBD0000C0540008B853000889
:1011900024000020C1110008747368656C6C0000A5
:1011A00073687278000000006E6F206D656D6F725D
:1011B0007920666F72207368656C6C0A000000000D
:1011C000914D686910F8211F41F001010170FFF78E
:1011D0004FFF01F09FFD0026FFF780FF044620002F
:1011E000FAD41B2C07D06B6993F82000012807D094
:1011F00002280ED017E06969012081F82000EBE792
:101200005B2C02D083F820600DE0022083F82000E0
:10121000E2E783F82060412CDED0422CDCD0442C65
:1012200038D0432C43D0002CD6D0FF2CD4D0092C5E
:101230004ED07F2C64D0082C62D00D2C7ED00A2C8E
:101240007CD0B3F87200502801D3A3F87260B3F8D1
:101250007400B3F87210884271D20A1A03F12201A5
:1012600001442333184401F0C5FE6869B0F87410D6
:1012700022300C54686990F82110C90706D0B0F8E4
:1012800074102230014461A001F044FD6869B0F897
:10129000744097E0B3F8740000289DD05CA001F082
:1012A00039FD686930F8741F491E018094E7B3F86E
:1012B0007400B3F8721088428ED22233C15C55A0FC
:1012C00001F028FD686930F8741F491C018083E72C
:1012D000002403E04EA001F01DFD641C6869B0F815
:1012E0007400A042F6DC6869223003F00BFA6869EA
:1012F0002230FFF767F8696921F8720F48806BE7C1
:10130000B3F874000028D1D033F8721F491E89B297
:101310001980401E80B25880723B814225D90A1A3A
:1013200003F1230101442233184401F063FE68698C
:10133000B0F8721022300E54686901E01EE047E0F8
:10134000B0F874102230014433A001F0E3FC686966
:10135000B0F8744003E02EA001F0DCFC641C686966
:10136000B0F87200A042A1DBF5E72DA001F0D2FC9D
:101370006869B0F8721022300E542DE700F028FF93
:1013800001280DD1686990F82100C00702D025A07E
:1013900001F0C0FC6869B0F87210223000F07EFEE7
:1013A000FFF766FE01F0B6FC686950212230FFF7B6
:1013B000B1F8686920F8726F46800DE714A001F05B
:1013C000A9FC641C6869B0F87200A042F6DC0AE06F
:1013D0002233CC54686990F82100C00703D021461D
:1013E0000CA001F097FC686930F8721F491C89B2A3
:1013F00001804288521C428072385029BDD320F8A7
:10140000726F4680E8E6000024000020257300008B
:101410000800000025630000082573202008000054
:10142000082008000A00000010B5124C2068800750
:1014300002D511A001F06EFC2068400011D50D48C6
:10144000C01E007808B1FFF795FD0A48001F00781C
:1014500008B100F067FD0748801E008808B103F05E
:10146000A9F92068002804DABDE8104008A001F0BE
:1014700051BC10BD2CED00E06661696C656420769E
:101480006563746F722066657463680A000000000B
:101490006465627567206576656E740A00000000F9
:1014A00010B502A001F036FC002010BD48656C6C40
:1014B0006F2052542D546872656164210A00000047
:1014C00070B50CA001F026FC0F4804680F4D0BE02E
:1014D00002220FA12068FEF794FF20B1D4E9001288
:1014E0000CA001F017FC0C3428688442F0D30020D3
:1014F00070BD00002D2D46756E6374696F6E204CB3
:101500006973743A0A0000002400002028000020BB
:101510005F5F0000252D313673202D2D2025730AA5
:10152000000000002DE9F04190B000262BA4082314
:1015300003AA04210BA800F08DF80827224639469B
:1015400028A001F0E7FB384600F0F8FE2EA001F0DD
:10155000E1FB0BA9304600F08FF80646002420E09E
:1015600003A850F824500C3DFEF78EFE297A9DF812
:10157000342021F08001914202D0FEF789FE0FE075
:10158000FEF786FE05F11400804601F0F1FB88B1FC
:10159000E86900902B460822394623A001F0BAFBE7
:1015A000641C0F98A042DBDC002ED2D110B00020CA
:1015B000BDE8F081404601F0F0FBE969CDE900109B
:1015C0002B46082239461DA001F0A4FB404603F03B
:1015D000B5F80CA001F09EFBE2E700006576656EB1
:1015E00074000000252D2A2E732020202020207337
:1015F00065742020202073757370656E6420746894
:10160000726561640A00000020202D2D2D2D2D2DE6
:101610002D2D2D2D202D2D2D2D2D2D2D2D2D2D2D07
:101620002D2D2D0A00000000252D2A2E2A732020A2
:1016300030782530387820300A000000252D2A2EF9
:101640002A73202030782530387820253033643ACA
:10165000000000002DE9F04104460D4616461F46E5
:10166000284601F0D7FD001D206025726660E76006
:1016700000202061BDE8F0812DE9F0410D460026F3
:1016800000212961E968002909D0297A39B12F6838
:1016900040B10446FEF7F8FD014636B112E00020E5
:1016A000BDE8F0813C460126F4E720462A7A10F88E
:1016B000040C20F08000904204D00846FEF7E8FDBC
:1016C0000020EDE7002668682468BC4201D10024B0
:1016D00004E0761C10C0EA68B242F5D10846FEF775
:1016E000D7FD2E612046DBE72DE9F04190B00026C2
:1016F0002FA4082303AA05210BA8FFF7ABFF082797
:10170000224639462CA001F005FB384600F016FEB3
:1017100032A001F0FFFA0BA93046FFF7ADFF0646F5
:10172000002526E003A850F825400C3CFEF7ACFD50
:10173000217A9DF8342021F08001914202D0FEF7F9
:10174000A7FD15E0FEF7A4FD04F11400804601F0AA
:101750000FFBB8B1404601F020FB218C628CCDE933
:101760000021029023460822394623A001F0D2FA34
:101770006D1C0F98A842D5DC002ECCD110B00020F3
:10178000BDE8F081404601F008FB218C628CCDE978
:10179000002102902346082239461DA001F0BAFA22
:1017A000404602F0CBFF19A001F0B4FAE0E70000D8
:1017B0006D61696C626F7800252D2A2E7320656E2D
:1017C0007472792073697A652073757370656E64BD
:1017D000207468726561640A00000000202D2D2DC0
:1017E0002D20202D2D2D2D202D2D2D2D2D2D2D2D50
:1017F0002D2D2D2D2D2D0A00252D2A2E2A73202545
:101800003034642020253034642025640A00000030
:10181000252D2A2E2A7320253034642020253034AB
:10182000642025643A00000010B5074C07A0E16869
:1018300001F070FA0AA0216901F06CFA6169BDE853
:1018400010400CA001F066BA5C000020746F746157
:101850006C206D656D6F72793A2025640A00000076
:1018600075736564206D656D6F7279203A2025640B
:101870000A0000006D6178696D756D20616C6C6F98
:101880006361746564206D656D6F72793A202564BB
:101890000A0000002DE9F04190B000262DA4082395
:1018A00003AA06210BA8FFF7D5FE082722463946D2
:1018B0002BA001F02FFA384600F040FD2FA001F0D8
:1018C00029FA0BA93046FFF7D7FE0646002424E08C
:1018D00003A850F824500C3DFEF7D6FC297A9DF859
:1018E000342021F08001914202D0FEF7D1FC13E0B8
:1018F000FEF7CEFC05F11400804601F039FAA8B1DC
:10190000404601F04AFAA98CCDE900102B46082286
:10191000394620A001F0FEF9641C0F98A042D7DCE4
:10192000002ECED110B00020BDE8F081404601F07D
:1019300034FAA98CCDE900102B46082239461AA0AA
:1019400001F0E8F9404602F0F9FE1CA001F0E2F9CE
:10195000E2E700006D736771756575650000000052
:10196000252D2A2E7320656E74727920737573701D
:10197000656E64207468726561640A00202D2D2DE7
:101980002D20202D2D2D2D2D2D2D2D2D2D2D2D2DA1
:101990002D0A0000252D2A2E2A732025303464209C
:1019A0002025640A00000000252D2A2E2A732025F8
:1019B000303464202025643A000000000A00000052
:1019C000F0B591B0002623A4082304AA03210CA893
:1019D000FFF740FE08272246394620A001F09AF979
:1019E000384600F0ABFC26A001F094F90CA9304673
:1019F000FFF742FE0646002523E004A850F82540E4
:101A00000C3CFEF741FC217A9DF8382021F0800142
:101A1000914202D0FEF73CFC12E0FEF739FC04F1E3
:101A2000140001F0BAF9E17F226A0823CDE90032FF
:101A3000CDE9021023460822394619A001F06AF9BF
:101A40006D1C1098A842D8DC002ECFD111B0002018
:101A5000F0BD00006D75746578000000252D2A2EFC
:101A6000732020206F776E65722020686F6C642071
:101A700073757370656E64207468726561640A00C2
:101A8000202D2D2D2D2D2D2D2D202D2D2D2D202DAD
:101A90002D2D2D2D2D2D2D2D2D2D2D2D2D0A0000F3
:101AA000252D2A2E2A7320252D382E2A7320253005
:101AB00034642025640A00002DE9F04190B000262E
:101AC0002DA4082303AA02210BA8FFF7C3FD0827B2
:101AD000224639462BA001F01DF9384600F02EFCB5
:101AE0002FA001F017F90BA93046FFF7C5FD0646F8
:101AF000002424E003A850F824500C3DFEF7C4FB5A
:101B0000297A9DF8342021F08001914202D0FEF71D
:101B1000BFFB13E0FEF7BCFB05F11400804601F0AB
:101B200027F9A8B1404601F038F9A98BCDE900109A
:101B30002B460822394620A001F0ECF8641C0F98CF
:101B4000A042D7DC002ECED110B00020BDE8F0813D
:101B5000404601F022F9A98BCDE900102B4608225E
:101B6000394619A001F0D6F8404602F0E7FD0BA077
:101B700001F0D0F8E2E7000073656D6170686F7284
:101B800065000000252D2A2E7320762020207375F5
:101B90007370656E64207468726561640A00000089
:101BA000202D2D2D202D2D2D2D2D2D2D2D2D2D2D7F
:101BB0002D2D2D0A00000000252D2A2E2A73202508
:101BC0003033642025640A00252D2A2E2A7320250F
:101BD0003033642025643A002DE9F041B0B000268E
:101BE00040A4082323AA01212BA8FFF733FD0827CF
:101BF000224639463D4801F08DF8384600F09EFBFC
:101C00003BA001F087F82BA93046FFF735FD0646CB
:101C100000255DE023A850F825400C3CFEF734FB7E
:101C20008046207A9DF8B41020F08000884203D0CE
:101C30004046FEF72DFB4AE08022214603A8FEF72E
:101C400037FC4046FEF724FB94F83500009023460D
:101C50000822394636A001F05DF894F8340000F00F
:101C60000F00012807D0022809D060B104280ED047
:101C7000032810D012E031A001F04CF80EE032A0A1
:101C800001F048F80AE033A001F044F806E034A07F
:101C900001F040F802E035A001F03CF8A06A0146EE
:101CA00000E0401C0278232AFBD0E26A401A101A96
:101CB00064235843B0FBF2F3D4F830C0A06CCDE9F4
:101CC000000CE069081A81182BA001F023F86D1CA4
:101CD0002F98A8429EDC002E95D130B00020BDE8A0
:101CE000F08100007468726561640000A04E000815
:101CF000202D2D2D20202D2D2D2D2D2D2D202D2D48
:101D00002D2D2D2D2D2D2D2D202D2D2D2D2D2D2D10
:101D10002D2D2D20202D2D2D2D2D2D20202D2D2D27
:101D20002D2D2D2D2D2D2D202D2D2D0A00000000C7
:101D3000252D2A2E2A732025336420002072656108
:101D400064792020000000002073757370656E6454
:101D50000000000020696E6974202020000000004F
:101D600020636C6F73652020000000002072756E88
:101D70006E696E67000000002030782530387820CA
:101D800030782530387820202020253032642525F1
:101D900020202030782530387820253033640A0020
:101DA000F0B58FB0002627A4082302AA0A210AA8AA
:101DB000FFF750FC08272246394624A000F0AAFF6E
:101DC000384600F0BBFA2BA000F0A4FF0AA9304669
:101DD000FFF752FC0646002426E002A850F82450E3
:101DE0000C3DFEF751FA297A9DF8302021F0800150
:101DF000914202D0FEF74CFA15E0FEF749FAD5E918
:101E00000901CDE900012B460822394622A000F045
:101E100081FF687AC00703D025A000F07BFF02E0B5
:101E200026A000F077FF641C0E98A042D5DC002E9F
:101E3000CCD102F083F8014624A000F06BFF0FB074
:101E40000020F0BD74696D6572000000252D2A2EFA
:101E5000732020706572696F646963202020746943
:101E60006D656F757420202020202020666C6167CE
:101E70000A000000202D2D2D2D2D2D2D2D2D2D2056
:101E80002D2D2D2D2D2D2D2D2D2D202D2D2D2D2D8F
:101E90002D2D2D2D2D2D0A00252D2A2E2A73203093
:101EA00078253038782030782530387820000000C8
:101EB0006163746976617465640A000064656163D6
:101EC000746976617465640A00000000637572725B
:101ED000656E74207469636B3A3078253038780AFF
:101EE00000000000FEF7A4FCFEF72AFC084D0126C6
:101EF00002274FF47A78AC1E2E802F80404601F0E6
:101F00004BFE27802680404601F046FEF4E70000A5
:101F10001A04024010B500F0BDFBBDE81040FFF709
:101F2000E1BF000010B518A000F0F4FE1B4C2178B2
:101F30001BA000F0EFFE2078C00702D01EA000F02A
:101F4000E9FE2078800702D51EA000F0E3FE20788D
:101F5000000702D51EA000F0DDFE2078C00602D5E5
:101F60001EA000F0D7FE2078000607D50B480C30E5
:101F70000168BDE810401CA000F0CCBEBDE81040D8
:101F80001DA000F0C7BE00006D656D206D616E6123
:101F90006765206661756C743A0A000028ED00E000
:101FA0005343425F434653525F4D4653523A307853
:101FB00025303258200000004941434356494F4CD8
:101FC000200000004441434356494F4C200000008C
:101FD0004D554E53544B4552522000004D53544BD7
:101FE00045525220000000005343422D3E4D4D41CA
:101FF000523A253038580A000A0000002DE9F0470F
:1020000081460025002699F80000002804D01E48CB
:102010000468DFF8788028E0BDE8F0470021084632
:1020200000F09AB806221AA12068FEF7EAF9D8B99A
:102030002768BF1D4846FEF7C5F90246394648469F
:10204000FEF7DFF980B925B93E463046FEF7BAF90A
:1020500005463946304602F09DFBA84200DA0546A7
:1020600039460DA000F056FE0C34D8F8000084422A
:10207000D8D3002E06D02A4631464846BDE8F04760
:1020800001F0AABBBDE8F087240000202800002052
:102090005F5F636D645F000025730A0038B5054615
:1020A00001E06D1C491E21B128782028F9D00928AB
:1020B000F7D031B16A462846FEF732FE18B12C46F9
:1020C00004E0002038BD009838BD641C207820282A
:1020D00001D00028F9D100202070294602A000F08C
:1020E00019FE4FF0FF3038BD25733A20636F6D6DD8
:1020F000616E64206E6F7420666F756E642E0A00C8
:102100002DE9F0478146884600260F48046808F10B
:1021100006050E4F10E006220DA12068FEF771F9AA
:1021200048B920684246801D4946FEF76AF910B951
:102130002068405D30B10C3438688442EBD33046BF
:10214000BDE8F087A668FAE72400002028000020F8
:102150005F5F636D645F000070B50EA000F0DAFD94
:1021600013480468134D0CE0062213A12068FEF703
:1021700048F928B9D4E90012891D11A000F0CAFD60
:102180000C3428688442EFD310A000F0C3FD002077
:1021900070BD000052542D546872656164207368EC
:1021A000656C6C20636F6D6D616E64733A0A00003C
:1021B00024000020280000205F5F636D645F000042
:1021C000252D313673202D2025730A000A000000CA
:1021D0000120704770B516460023002400254AE010
:1021E00000F8015B5B1C0278202A01D0092A01D18A
:1021F0008B42F5D3082C10D321A000F08BFD0025D5
:1022000005E056F8251026A000F084FD6D1CA542BF
:10221000F7D322A000F07EFD2FE08B422DD2027872
:10222000222A03D046F82400641C1BE0401C5B1CDF
:1022300046F82400641C08E05C2A04D14278222A73
:1022400001D1401C5B1C401C5B1C0278222A01D07F
:102250008B42F1D38B4210D200F8015B5B1C0AE089
:10226000401C5B1C0278202A03D0092A01D08B4233
:10227000F6D38B4201D28B42B5D3204670BD00000D
:10228000546F6F206D616E79206172677320212019
:102290005765206F6E6C79205573653A0A0000000F
:1022A0002573200070B586B001210846FEF736FB85
:1022B00001211020FEF740FB00248DF8164001207C
:1022C0008DF8170002258DF815508DF81450400236
:1022D0000490184E04A93046FEF75CFA8DF81450AD
:1022E0006902049104A93046FEF754FA07220A2134
:1022F0003046FEF78DFA072209213046FEF788FAAC
:102300004FF4E1300090ADF80440ADF80640ADF870
:102310000840ADF80C400C20ADF80A00064C6946A8
:102320002046FEF771FC01212046FEF759FC06B05D
:1023300070BD0000000002400010014010B50446CE
:1023400002E003A000F0E6FC641E601CF9D110BDA1
:102350002D00000070B504461F4D2868844204D249
:10236000A1221E491EA000F02BF96868844204D304
:10237000A2221A4922A000F023F9608820B1A322EA
:1023800016492AA000F01CF96068296808448442B4
:102390000FD042886AB96A6890420AD0AA6882421D
:1023A00000D1AC6042686260436801F10800621AC3
:1023B0001A50A0680844A0420CD04288002A09D1D3
:1023C000AA68A24200D1A86062684260401A6268AE
:1023D0000831505070BD00005C000020784C0008AF
:1023E0002872745F75696E74385F74202A296D6570
:1023F0006D203E3D20686561705F70747200000062
:102400002872745F75696E74385F74202A296D654F
:102410006D203C202872745F75696E74385F74207B
:102420002A29686561705F656E6400006D656D2DB9
:102430003E75736564203D3D203000002DE9F04F6E
:1024400085B00EAC70CCA9460094740602D5DFF8B6
:102450001CB103E0DFF814B1ABF1110BF40601D5A8
:1024600026F00106F40702D04FF0300A01E04FF0E9
:10247000200A0027B4070BD5002A02DA2D27524282
:1024800006E0740701D52B2702E0340700D520278A
:1024900000240DF1040E7AB9302201248DF80420B5
:1024A0000CE00A2B15D002F00F081209A4461BF805
:1024B0000880641C0EF80C80002AF2D1AC4200DDCA
:1024C0002546009A521B16F0110F4FF0200309D039
:1024D00016E04FF00A0CB2FBFCF80CFB1828B2FB1C
:1024E000FCF2E3E73FB1002A05DD521E03E088421B
:1024F00000D20370401CB2F1000CA2F10102F6DC24
:1025000027B1884200D20770521E401CF60605D53E
:1025100008E0884201D280F800A0401C161EA2F1FB
:102520000102F6DC302703E0884200D20770401C2D
:102530002E466D1EA642F7DC05E0884202D21EF848
:1025400004500570401C251EA4F1010407DDB9F1FB
:10255000000FF2D103E0884200D20370401C141E29
:10256000A2F10102F7DC05B0BDE8F08F5F4C000876
:102570001CB514200A21CDE900104FF4807300220D
:10258000074908A001F0FBF9044624B9C522074910
:1025900007A000F015F82046BDE81C4001F08ABBFA
:1025A000151F00086D61696E0000000028490008D1
:1025B00074696420213D2052545F4E554C4C0000FC
:1025C00038B50D46002100910A494C68002C05D011
:1025D00001B02946A446BDE8304060471346014695
:1025E0002A4605A000F096FB9DF800000028FBD0CD
:1025F00038BD000054000020282573292061737322
:10260000657274696F6E206661696C6564206174BF
:102610002066756E6374696F6E3A25732C206C6941
:102620006E65206E756D6265723A2564200A000041
:1026300070B54843044600F0D5FB054625B1224657
:102640000021284600F0F0FC284670BD70B5084C0B
:10265000084D0AE008A0216800F05CFB6068804734
:10266000014609A000F056FB0834AC42F2D370BD1D
:1026700090530008A0530008696E697469616C6921
:102680007A652025730000003A256420646F6E652A
:102690000A00000070B50AA000F03CFB104C114D80
:1026A0000AE011A0216800F035FB60688047014610
:1026B00011A000F02FFB0834AC42F2D370BD000033
:1026C000646F20636F6D706F6E656E747320696EDA
:1026D000697469616C697A6174696F6E2E0A0000B1
:1026E000A0530008B0530008696E697469616C6991
:1026F0007A652025730000003A256420646F6E65BA
:102700000A00000010B5FDF7BFFD044A5188491CBE
:102710005180BDE81040FDF7BBBD0000E400002083
:1027200010B5FDF7B1FD0B4C6188491E09B26180FF
:1027300000290ADC00216180FDF7AAFD60680028FD
:1027400007D0BDE8104000F00BBEBDE81040FDF71B
:102750009FBD10BDE400002070B50446002C6AD077
:10276000FDF792FD054600F085FA48B1324933A0E5
:1027700000F0D0FA4FF40B722F493AA0FFF720FF78
:102780002846FDF785FDA00705D040F22E222A49F4
:1027900035A0FFF715FF404D2868844202D36868D2
:1027A000844205D340F22F2223493C48FFF708FF1B
:1027B000286884423FD3686884423CD20C3C4FF086
:1027C000FF31374800F0FEFE60884FF4F55610B137
:1027D0002088B04208D033A000F09CFA2388628899
:1027E000214637A000F096FA608828B940F24E22C0
:1027F00011493FA0FFF7E4FE2088B04205D040F227
:102800004F220D493DA0FFF7DBFE002060802680AF
:10281000A868844200D2AC6029686068611A401AD6
:102820002969081A28612046FFF794FDBDE8704029
:102830001B4800F07DBE70BD704C000846756E638D
:1028400074696F6E5B25735D207368616C6C206EBC
:102850006F74206265207573656420696E2049532A
:10286000520A00003000000028282872745F756248
:102870006173655F7429726D656D29202620285269
:10288000545F414C49474E5F53495A45202D2031F2
:102890002929203D3D2030005C000020784F0008B1
:1028A00088040020746F2066726565206120626173
:1028B00064206461746120626C6F636B3A0A00008B
:1028C0006D656D3A203078253038782C2075736529
:1028D0006420666C61673A2025642C206D6167690D
:1028E0006320636F64653A203078253034780A00BD
:1028F0006D656D2D3E757365640000006D656D2D11
:102900003E6D61676963203D3D20484541505F4D04
:10291000414749430000000000487047A8050020D7
:1029200000487047A841002010B5FEF7E9F81148AB
:102930004FF47A710068B0FBF1F0401EB0F1807F77
:1029400009D24FF0E02148610B4AF02010700020BE
:10295000886107200861FFF7A5FCFFF777FEFFF706
:10296000DFFF0446FFF7D8FF2146BDE8104000F026
:1029700047BF00000000002023ED00E070B54FF0DD
:10298000FF340B4D20212846FEF736F920B12846AA
:10299000FEF798F9C4B208E008212846FEF72CF9A2
:1029A00018B140212846FEF717F9E0B270BD0000CB
:1029B0000010014070B50446FFF7A4FE0F4D16E06D
:1029C0000A2809D10D212846FEF780F94021284622
:1029D000FEF712F90028F9D014F8011B2846FEF77B
:1029E00075F980212846FEF707F90028F9D02078EC
:1029F0000028E5D1BDE87040FFF792BE001001400D
:102A000070B5054605F124002C1D304909680029E0
:102A100002D08847002857D02DA0E16B00F07AF94A
:102A20002FA0216A00F076F931A0616A00F072F9F6
:102A300033A0A16A00F06EF935A0E16A00F06AF9EE
:102A400037A0216800F066F939A0616800F062F9EA
:102A50003BA0A16800F05EF93DA0E16800F05AF9E2
:102A60003FA0216900F056F941A0616900F052F9D8
:102A700043A0A16900F04EF945A0E16900F04AF9D0
:102A800047A0216B00F046F949A0616B00F042F9C4
:102A90004BA0A16B00F03EF92878400708D501F063
:102AA000C3F801464AA000F035F9FFF795F802E0B7
:102AB0004FA000F02FF92878C00602D453A000F0F0
:102AC00029F9FEF7B1FCFEE770BD00003C000020D4
:102AD0007073723A203078253038780A0000000090
:102AE0007230303A203078253038780A0000000003
:102AF0007230313A203078253038780A00000000F2
:102B00007230323A203078253038780A00000000E0
:102B10007230333A203078253038780A00000000CF
:102B20007230343A203078253038780A00000000BE
:102B30007230353A203078253038780A00000000AD
:102B40007230363A203078253038780A000000009C
:102B50007230373A203078253038780A000000008B
:102B60007230383A203078253038780A000000007A
:102B70007230393A203078253038780A0000000069
:102B80007231303A203078253038780A0000000061
:102B90007231313A203078253038780A0000000050
:102BA0007231323A203078253038780A000000003F
:102BB000206C723A203078253038780A0000000006
:102BC0002070633A203078253038780A0000000001
:102BD00068617264206661756C74206F6E20746821
:102BE000726561643A2025730D0A0D0A0000000029
:102BF00068617264206661756C74206F6E20686114
:102C00006E646C65720D0A0D0A0000004650552076
:102C1000616374697665210D0A00000070B506468F
:102C2000121D22F00700A0F1400528460022094CA1
:102C300040F82240521C102AFAD30162002141625E
:102C40008162C1620163436386634FF08071C16337
:102C5000284670BDEFBEADDE10B5FDF715FB044A8A
:102C60001178491C1170BDE81040FDF711BB000040
:102C70005000002010B5FDF707FB03490C78FDF765
:102C800007FB204610BD00005000002010B5FDF7E6
:102C9000FBFA044A1178491E1170BDE81040FDF797
:102CA000F7BA00005000002010B50068143800F09A
:102CB0007BFF002010BD2DE9F04105460E4614466D
:102CC000304601F053F806F1140714B1012C1DD160
:102CD00004E03946284600F044F817E02C680DE07F
:102CE000A4F1140096F8351090F83520914204D2E2
:102CF0003946143000F035F802E02468AC42EFD1D8
:102D0000AC4203D13946284600F02BF80020BDE83C
:102D1000F08100000FB408B503AB0093FF21054814
:102D2000029A01F07FFB0348FFF744FE01B05DF813
:102D300014FB0000880300200268516002680A60EA
:102D40000160486070470268516002680A60016073
:102D5000486070470268516002680A60016048601C
:102D600070474268116042684A604160086070477D
:102D70000168814201D1012070470020704701683D
:102D8000814201D1012070470020704701688142D3
:102D900001D10120704700207047024600201146F3
:102DA00000E0401C09689142FBD17047D0E9002146
:102DB0005160D0E900121160406000607047D0E9B6
:102DC00000215160D0E9001211604060006070473E
:102DD000D0E900215160D0E900121160406000602C
:102DE000704700002DE9F0470446002C1CD0FDF789
:102DF0004BFA0546FFF73EFF48B1584958A0FFF788
:102E000089FF4FF48C7255495FA0FFF7D9FB284624
:102E1000FDF73EFAE41C24F003055C4EF0688542A1
:102E200004D90020BDE8F0870020FBE70C2D00D27C
:102E30000C254FF0FF31564800F0C4FBB7683168ED
:102E4000781AD6F80CC0ACEB05037FE00C1862884A
:102E5000002A7AD16268121A0C3AAA4275D36268C3
:102E600005F11803121A0C3A4FF001094FF4F55806
:102E70009A4221D343190C33CA18A2F800804FF0AC
:102E8000000AA2F802A0D4F804A0C2F804A090603E
:102E90006360A4F8029050680CF10C0C604502D0FD
:102EA00001F108028350306928440C3030617269A6
:102EB00082420DD270610BE0A4F802906068621A41
:102EC000801A3269104430617269824200D27061A6
:102ED000A4F80080BC4214D1726802E04068084443
:102EE000B060B06843880BB19042F7D1B1689142AD
:102EF00007D0408828B14FF4C172184925A0FFF7C8
:102F00005FFB234800F014FB601971680C308842A5
:102F100005D94FF4C37211492848FFF751FB04F15A
:102F20000C05A90705D040F287120C492448FFF789
:102F300047FBA10707D04FF4C472084900E004E042
:102F400020A0FFF73DFB28466CE7606883423FF610
:102F50007DAF0F4800F0ECFA002063E7974C0008C3
:102F600046756E6374696F6E5B25735D207368616F
:102F70006C6C206E6F7420626520757365642069C7
:102F80006E204953520A0000300000005C0000200F
:102F90008804002028286C66726565203D3D206805
:102FA0006561705F656E6429207C7C2028216C66D9
:102FB0007265652D3E75736564292900D44F00083C
:102FC0002C4F000828282872745F75626173655F52
:102FD00074296D656D292026202852545F414C4983
:102FE000474E5F53495A45202D20312929203D3D28
:102FF0002030000010B503461846814210D28C18CC
:103000009C420DD9991803E014F8013D01F8013DE7
:10301000521E531CF8D110BD11F8014B03F8014B9F
:10302000521E541CF8D110BD10B50346CCB2042A70
:1030300015D3810713D1014644EA042343EA03432D
:1030400005E00B604B608B60CB601031103A102AAA
:10305000F7D201E008C1121F042AFBD20B46E1B2ED
:1030600001E003F8011B521E541CFAD110BD0000F0
:103070002DE9F04106460F46FDF706F90446FFF735
:10308000F9FD48B11C491DA0FFF744FE4FF4C3727F
:10309000194924A0FFF794FA2046FDF7F9F83046C5
:1030A00000F0B8F805462DB94FF4C57212491EA0BC
:1030B000FFF786FAE868FFF795FE0446D4B10021D1
:1030C0002046EA68FFF7B0FF2672002060720822EF
:1030D0003946204600F080FBFDF7D6F8064604F19D
:1030E0000C01281DFFF728FE3046FDF7D1F82046D9
:1030F000BDE8F0810020FBE7CC4C000846756E630C
:1031000074696F6E5B25735D207368616C6C206EF3
:103110006F74206265207573656420696E20495361
:10312000520A000030000000696E666F726D6174B3
:10313000696F6E20213D2052545F4E554C4C00006B
:1031400070B50446002C05D14FF4DD720E490FA076
:10315000FFF736FA207A000605D540F2BB120A497D
:103160000FA0FFF72DFA00202072FDF78DF805461D
:1031700004F10C00FFF71AFE2846FDF789F82046F7
:10318000BDE87040FFF7E8BADF4C00086F626A657F
:10319000637420213D2052545F4E554C4C0000007A
:1031A00021286F626A6563742D3E747970652026EC
:1031B0002052545F4F626A6563745F436C6173733E
:1031C0005F537461746963290000000070B50446A0
:1031D000002C05D14FF4B372084909A0FFF7F0F9AC
:1031E00000202072FDF750F8054604F10C00FFF7AF
:1031F000DDFD2846BDE87040FDF74AB8BB4C00082D
:103200006F626A65637420213D2052545F4E554CB5
:103210004C0000000021074A02EB01131B78834297
:1032200002D102EB01107047491C0729F4DB002092
:10323000704700007400002010B50446002C05D132
:1032400040F2EF12034904A0FFF7BAF9207A20F008
:10325000800010BD0A4D00086F626A65637420210A
:103260003D2052545F4E554C4C0000002DE9F04774
:103270000646884692464046FFF7CCFF05462800A2
:1032800005D140F23312174917A0FFF799F9FFF75C
:1032900039FA6C6840F243192F1D0AE0A4F10C00C2
:1032A00030B1B04204D14A460E4915A0FFF788F963
:1032B0002468BC42F2D1FFF733FA48F08000307244
:1032C00008225146304600F087FAFCF7DDFF04463D
:1032D00006F10C01281DFFF72FFD2046BDE8F04741
:1032E000FCF7D6BFAC4C0008696E666F726D6174F6
:1032F000696F6E20213D2052545F4E554C4C0000AA
:103300006F626A20213D206F626A6563740000006D
:1033100010B50446002C05D14FF4EE72054906A005
:10332000FFF74EF9207A000601D5012010BD0020DC
:1033300010BD0000F04C00086F626A6563742021C4
:103340003D2052545F4E554C4C00000010B5FFF725
:1033500083FC00F0F9FDBDE81040FFF797BC0000CA
:103360002DE9F041FCF790FF0746164E7088C0B972
:10337000B068FDF7B1FC401E134951F83040143CD1
:103380007568AC420DD0307074602046FDF710FDBA
:103390000E48007850B104F11C0105F11C00FCF747
:1033A0007AFF3846BDE8F041FCF772BF04F11C011A
:1033B00005F11C00FCF76FFF3846BDE8F041FCF753
:1033C00067BF0000E4000020A80400205000002097
:1033D00010B50446002C05D140F21712114912A075
:1033E000FFF7EEF8FCF750FF024614F8340F20F018
:1033F0000F00401C207060781049343C01EBC00184
:1034000004F114004B6818604B6843604860016029
:103410000B48A16B836819438160BDE810401046DA
:10342000FCF736BF464D0008746872656164202160
:103430003D2052545F4E554C4C000000A804002023
:10344000E400002070B50546002D05D140F245127C
:10345000134914A0FFF7B4F8FCF716FF014605F175
:103460001404D4E900205060D4E9000210606460C4
:10347000246095F83500104A02EBC00002688242D1
:1034800001D1012000E0002020B10C48AB6B826824
:103490009A438260BDE870400846FCF7F9BE000020
:1034A000604D000874687265616420213D205254AB
:1034B0005F4E554C4C000000A8040020E4000020A2
:1034C0002DE9F04104460F4615461E46002C04D156
:1034D000D2220D490DA0FFF773F8B5F5803F04D354
:1034E000D32209490DA0FFF76BF83A460221204686
:1034F000FFF7BCFE2046143040600060A583667272
:103500000020BDE8F08100005249000873656D207D
:10351000213D2052545F4E554C4C000076616C7535
:1035200065203C20307831303030305500000000CC
:103530002DE9F0410446002C05D140F2B7121B4999
:103540001BA0FFF73DF82046FFF776FE022805D0C6
:103550004FF4DC7215491A48FFF732F80025FCF7E2
:1035600093FE064604F114000746FFF708FC38B145
:10357000A08B4FF6FF7188420CD2401CA08303E061
:103580003846FFF791FB01253046FCF781FE012DFF
:1035900007D008E03046FCF77BFE6FF00200BDE884
:1035A000F081FFF7DDFE0020F9E7000094490008F4
:1035B00073656D20213D2052545F4E554C4C0000E8
:1035C000E44E00082DE9F3410446002C05D14FF4E8
:1035D000A672364936A0FEF7F3FF2046FFF72CFE11
:1035E000022805D040F24D1230493548FEF7E8FF79
:1035F000FCF74AFE0646A08B28B1401EA083304649
:10360000FCF746FE4FE0019840B1FCF73DFE07464F
:1036100000F00AFB40F26D1538B10FE03046FCF7C0
:1036200037FE6FF00100BDE8FC81204925A0FFF7BF
:1036300071FB2A461D4931A0FEF7C2FFFCF724FEAC
:103640008046FFF717FB40B118492DA0FFF762FB3A
:103650002A46164929A0FEF7B3FF4046FCF718FE9C
:103660003846FCF715FE00F0DFFA05460020286317
:10367000627A294604F11400FFF71DFB0198002827
:1036800009DD05F14C0001AA0021044600F0BAFC56
:10369000204600F0B5FD3046FCF7FAFDFFF760FE6E
:1036A000286B0028BFD10020BDE700008849000832
:1036B00073656D20213D2052545F4E554C4C0000E7
:1036C000E44E000846756E6374696F6E5B25735D2A
:1036D000207368616C6C206E6F7420626520757356
:1036E0006564206265666F726520736368656475E2
:1036F0006C65722073746172740A000030000000FF
:1037000046756E6374696F6E5B25735D20736861C7
:103710006C6C206E6F74206265207573656420691F
:103720006E204953520A000008B509A0FFF7F2FACB
:103730000AA0FFF7EFFA12A000900523012203214F
:1037400012A0FFF7E7FABDE8084018A0FFF7E2BAB9
:103750000A205C207C202F0A000000002D205254FB
:10376000202D2020202020546872656164204F7035
:1037700065726174696E672053797374656D0A00B0
:103780004E6F76203238203230323300202F207CAA
:10379000205C202020202025642E25642E256420F6
:1037A0006275696C642025730A0000002032303095
:1037B00036202D203230323020436F7079726967A5
:1037C00068742062792072742D7468726561642057
:1037D0007465616D0A00000010B5002A07D0034629
:1037E00011F8014B03F8014B14B1521EF8D110BD72
:1037F000002101E003F8011B521EFBD110BD0000A7
:103800002DE9F04106460F46F01C20F0030427F096
:103810000305FCF739FD8046FFF72CFA40B11B4940
:103820001BA0FFF777FAD222184923A0FEF7C8FEA3
:103830004046FCF72DFD182D21D9A5F11800A04216
:103840001DD3291B1D4D1839E9602C604FF4F5522A
:1038500022800C3161600020A0606080606820449C
:10386000686002800122428041608160002314A1CF
:103870001548FFF725FE2868A860BDE8F0813A46A4
:103880003146BDE8F04111A0FFF744BA834C00086F
:1038900046756E6374696F6E5B25735D2073686136
:1038A0006C6C206E6F74206265207573656420698E
:1038B0006E204953520A0000300000005C000020D6
:1038C0006865617000000000880400206D656D204F
:1038D000696E69742C206572726F72206265676907
:1038E0006E206164647265737320307825782C20B3
:1038F000616E6420656E6420616464726573732018
:10390000307825780A00000010B50A4B00245C804E
:103910000020094A02EBC00149600960401C2028D0
:10392000F8DB1F2018705C609C6002480C3040601F
:10393000006010BDE4000020A804002010B5074C72
:10394000A068FDF7C9F9401E054951F83000143848
:103950006060BDE810401C30FCF7CBBCE4000020E8
:10396000A80400200020044A02EBC001496009605D
:10397000401C0028F8D07047FC00002070472DE95B
:10398000FF478046DDE90C67894692461D46414661
:103990000120FFF76DFB044620000FD02846FFF7FB
:1039A00021FA68B18DE8E10053464A464146204677
:1039B000FDF75CFA204604B0BDE8F0870020FAE786
:1039C0002046FFF7BDFB0020F5E7000070B5134867
:1039D0000468FCF759FC05462046FDF7BCFA204672
:1039E000FFF730FD042084F8340004F14C0000F0AF
:1039F0006FFB2046FFF78CFC01280BD004F114016B
:103A00000748FFF7A0F9FFF7ABFC2846BDE8704078
:103A1000FCF73EBC2046FFF7D9FBF4E7E8000020A6
:103A2000F000002000F002F8FCE7000070B5FCF7A1
:103A30002BFC0446FFF71EF940B1194919A0FFF706
:103A400069F99322164921A0FEF7BAFD2046FCF73A
:103A50001FFC18E0012000E00020E0B11C480468D1
:103A6000A4F11405D4E900104860D4E9000108600D
:103A700064602460A86AFEF76FFE2846FFF760FBCB
:103A80003046FCF705FCFCF7FFFB064610480168D2
:103A90008142E1D0DEE73046BDE87040FCF7F8BB7C
:103AA0003C49000846756E6374696F6E5B25735DF3
:103AB000207368616C6C206E6F7420626520757372
:103AC000656420696E204953520A000030000000EE
:103AD000F00000201FB52020C2001F21094BCDE9B6
:103AE0000210CDE9003207480023074A07A18038B9
:103AF00000F010F804B00348BDE81040803800F032
:103B0000D9B8000088020020253A00087469646C66
:103B1000650000002DE9FF5F0746DDE90F86119D76
:103B20000E9C894692469B46002F04D1E9220E49FD
:103B30000EA0FEF745FD24B9EA220B4910A0FEF7BE
:103B40003FFD4A4601213846FFF790FBCDE901864B
:103B50005B4652464946384603950094FDF786F980
:103B600004B0BDE8F09F00008A4D000874687265DB
:103B7000616420213D2052545F4E554C4C000000A2
:103B8000737461636B5F737461727420213D2052A2
:103B9000545F4E554C4C000010B500F0B5F9BDE82F
:103BA000104000F047B8000070B50446002C05D165
:103BB00040F2F722154916A0FEF702FD2046FFF756
:103BC0003BFB012805D04FF43E7210491548FEF723
:103BD000F7FC94F8340000F00F00022802D04FF0F8
:103BE000FF3070BDFCF750FB054604F11400FFF7F1
:103BF000E6F804F14C0000F0C1FB2846FCF748FB56
:103C00002046FFF7E5FB002070BD0000174E0008BE
:103C100074687265616420213D2052545F4E554C9A
:103C20004C00000018500008014800687047000070
:103C3000E8000020F1B5FCF727FB054615480468AD
:103C40002CB940F2FB12144914A0FEF7B9FC20462F
:103C5000FFF7F2FA012805D04FF4FE720E4914481E
:103C6000FEF7AEFC204600F081F804F14C006A46F5
:103C70000021064600F0C6F9304600F0C1FA284699
:103C8000FCF706FBFFF76CFB206B801C00D1206368
:103C90000020F8BDE8000020CD4D00087468726572
:103CA000616420213D2052545F4E554C4C00000071
:103CB0001850000810B50446002C05D140F20D1232
:103CC000154916A0FEF77CFC94F83400000705D0D7
:103CD0004FF48772104916A0FEF772FC2046FFF7DA
:103CE000ABFA012805D040F20F120B491E48FEF72F
:103CF00067FC3434A078607001218140616002204B
:103D000004F834092046FFF74FFFFFF78DFF08B195
:103D1000FFF726FB002010BD994D000874687265FE
:103D2000616420213D2052545F4E554C4C000000F0
:103D3000287468726561642D3E7374617420262056
:103D400052545F5448524541445F535441545F4D6F
:103D500041534B29203D3D2052545F544852454128
:103D6000445F494E495400001850000870B504469D
:103D7000002C05D140F2CD22164917A0FEF720FCF9
:103D80002046FFF759FA012805D040F2CE2211490A
:103D90001648FEF715FC94F8340000F00F000128D7
:103DA00002D04FF0FF3070BDFCF76EFA054620469A
:103DB000FFF748FB94F8340020F00F00801C84F8D3
:103DC000340004F14C0000F0D9FA2846FCF760FA00
:103DD000002070BD054E0008746872656164202182
:103DE0003D2052545F4E554C4C00000018500008C6
:103DF00010B50446002C05D140F22332144915A019
:103E0000FEF7DEFB94F8340000F00F00022805D026
:103E10004FF449720E4914A0FEF7D2FB2046FFF77B
:103E20000BFA012805D040F2253209491D48FEF75A
:103E3000C7FB6FF00100206304F11400FEF7BFFF21
:103E40002046FFF7C5FABDE81040FFF789BA000029
:103E5000284E000874687265616420213D20525428
:103E60005F4E554C4C000000287468726561642DEB
:103E70003E7374617420262052545F544852454169
:103E8000445F535441545F4D41534B29203D3D20E5
:103E900052545F5448524541445F53555350454E28
:103EA000440000001850000870B5FCF7EDF9064614
:103EB0001348046894F8340000F00F0001281AD168
:103EC000D4E90501884216D004F114000546FEF736
:103ED00076FF94F835000B4901EBC00041680D6096
:103EE00041686960456028603046FCF7D1F9FFF70A
:103EF00037FA002070BD3046FCF7CAF9002070BDCB
:103F0000E8000020A8040020002802DA4FF0FF306B
:103F100070474FF47A7190FBF1F24A4390FBF1F352
:103F200001FB130000EB4003C3EBC0104B1E03EB7F
:103F3000C00090FBF1F01044704700000148006899
:103F4000704700004C00002010B509490868401C6B
:103F50000860FFF769FE816C491E816419B9416CE4
:103F60008164FFF7A1FFBDE8104000F003B8000036
:103F70004C0000202DE9FC41684601900090FFF7BD
:103F8000DDFF0746FCF780F905462FE01C48046872
:103F9000143C6FF00041A06A381A88422BD22046A8
:103FA000FCF7CDFF607A810702D420F00100607237
:103FB00004F114010E466846FEF7CCFED4E9072052
:103FC0009047FFF7BBFF07466846FEF7DFFE68B97C
:103FD0003046FEF7FDFE607A810707D5C10705D0A0
:103FE00020F001006072204600F00AF90448FEF754
:103FF000CDFE0028CAD02846FCF74AF9BDE8FC816E
:10400000FC00002070B504460E461546002C05D174
:1040100040F2D91219491AA0FEF7D2FA2046FFF74A
:104020000BF90A2805D04FF4ED72144919A0FEF7D8
:10403000C7FAFCF729F9052E1CD2DFE806F00603C3
:10404000090E1300616A296014E02968616211E0B9
:10405000617A21F0020161720CE0617A41F00201A3
:10406000617207E0617AC90702D00121296001E08D
:1040700000212960FCF70CF9002070BD854E000876
:1040800074696D657220213D2052545F4E554C4C31
:104090000000000072745F6F626A6563745F676539
:1040A000745F74797065282674696D65722D3E7031
:1040B0006172656E7429203D3D2052545F4F626AE3
:1040C0006563745F436C6173735F54696D657200FF
:1040D00070B50446002C04D1DD22144914A0FEF76B
:1040E0006FFA2046FFF7A8F80A2804D0DE220F490D
:1040F00014A0FEF765FA2046FFF70AF920B9DF227F
:104100000A491FA0FEF75CFAFCF7BEF805462046F8
:10411000FCF715FF607A20F0010060722846FCF77A
:10412000B7F82046FFF752F8002070BD484E00084F
:1041300074696D657220213D2052545F4E554C4C80
:104140000000000072745F6F626A6563745F676588
:10415000745F74797065282674696D65722D3E7080
:104160006172656E7429203D3D2052545F4F626A32
:104170006563745F436C6173735F54696D6572004E
:1041800072745F6F626A6563745F69735F7379737A
:1041900074656D6F626A656374282674696D6572F3
:1041A0002D3E706172656E74290000002DE9F843A0
:1041B0000546DDE90894884616461F46002D04D1C1
:1041C000C922094909A0FEF7FBF942460A212846FF
:1041D000FFF74CF84B463A46314628460094FCF728
:1041E0009BFEBDE8F88300003A4E000874696D65D7
:1041F0007220213D2052545F4E554C4C000000006F
:104200002DE9F8430446002C05D140F241123C4907
:104210003CA0FEF7D5F92046FFF70EF80A2805D096
:104220004FF4A17236493CA0FEF7CAF9FCF72CF80E
:1042300007462046FCF783FE607A20F0010060729A
:10424000606A6FF00045A84205D340F251122C4934
:1042500040A0FEF7B5F9FFF771FE616A4318A3624B
:10426000DFF81481CDF8008000226E4608EBC20012
:10427000D0F804C00AE00068A0EBC2014969994285
:1042800002D0C91AA94205D346F8220056F82200E6
:104290006045F0D132B156F8221002F1010C08311C
:1042A00046F82C10521C002AE0D03348001FD0F8EA
:1042B000008008F10108C0F8008004F114010098A2
:1042C000FEF748FD02250EE05FEA88700DD1C5F1CA
:1042D000010004EBC001143156F82000FEF73AFD4E
:1042E0004FEA98086D1C012DEED9607A40F001006C
:1042F00060723846FBF7CCFF0020BDE8F883000071
:10430000684E000874696D657220213D2052545F2B
:104310004E554C4C0000000072745F6F626A65631A
:10432000745F6765745F74797065282674696D655C
:10433000722D3E706172656E7429203D3D2052548D
:104340005F4F626A6563745F436C6173735F546946
:104350006D65720074696D65722D3E696E69745F7A
:104360007469636B203C2052545F5449434B5F4D4A
:104370004158202F20320000FC00002070B5044678
:10438000002C05D14FF4DB72114912A0FEF718F989
:104390002046FEF751FF0A2805D040F2B7120C491B
:1043A00011A0FEF70DF9607AC0070ED0FBF76CFF85
:1043B00005462046FCF7C3FD607A20F001006072DC
:1043C0002846FBF765FF002070BD4FF0FF3070BD41
:1043D000774E000874696D657220213D2052545F4C
:1043E0004E554C4C0000000072745F6F626A65634A
:1043F000745F6765745F74797065282674696D658C
:10440000722D3E706172656E7429203D3D205254BC
:104410005F4F626A6563745F436C6173735F546975
:104420006D6572002DE9FF4F83B080468A4608EB28
:104430000A0744464FF0FF3BA74202D25F46C8F14D
:10444000FF3A4FF0200917E1252804D0BC4200D2E2
:104450002070641C0DE100250599491C0591087820
:104460002D2812D02B2813D0202814D0232815D083
:10447000302816D05E46059A1278303A0A2A13D2AE
:1044800005A800F073F906461AE045F01005E3E7C9
:1044900045F00405E0E745F00805DDE745F02005B7
:1044A000DAE745F00105D7E72A2809D1491C05912B
:1044B000069840C80690002E02DA764245F01005B4
:1044C000DC46059801782E2918D1401C059001780A
:1044D000A1F130020A2A04D205A800F047F9844667
:1044E00007E02A2905D1401C0590069850F804CB16
:1044F0000690BCF1000F01DA4FF0000C0020059A85
:104500001178682901D06C2902D10846521C059205
:104510000A23059909786F2976D00CDC632920D00D
:1045200004DC252971D058290DD18DE0642901D0F2
:10453000692908D18CE0702969D073292FD0752999
:1045400077D0782976D0BC4201D225202070641C17
:104550000598017800296ED0BC4200D22170641CFD
:1045600087E0E80605D507E0BC4201D284F8009058
:10457000641C761E002EF7DC069810F8041B0690CB
:10458000C8B2BC4200D22070641C04E0BC4201D21C
:1045900084F80090641C761E002EF7DC69E0069813
:1045A00002C8069001B946A1002000E0401CB042BC
:1045B00002D00A5C002AF9D1BCF1000F02DD60458F
:1045C00000DD6046EA0605D508E0BC4201D284F869
:1045D0000090641C3246761E8242F6DC002206E021
:1045E000BC4201D20B782370641C491C521C8242CD
:1045F000F6DB04E0BC4201D284F80090641C314632
:10460000761E8142F6DC34E01CE015E0FFE7701C0A
:1046100002D1082645F00105CDE9006C0698029507
:10462000102304C8069039462046FDF707FF0446CC
:104630001FE00FE00AE02BE0BC4201D225202070F1
:10464000641C16E0082305E045F04005102301E056
:1046500045F002056C281ED0682820D0069804C8B2
:104660000690CDE9006C394620460295FDF7E6FE3E
:1046700004460598401C05900598007800287FF4B2
:10468000E3AEBAF1000F15D0BC4211D2207011E098
:10469000401E0590EDE7069804C80690E1E70698ED
:1046A00030F8041B06908AB2A807DAD512B2D8E710
:1046B00007F8010C07B0A4EB0800BDE8F08F00007C
:1046C000284E554C4C2900000020704700207047B0
:1046D000002070470020704710B5FBF7D5FDFEF7AE
:1046E00023F9FFF721F8FFF73DF9FFF70DF9FDF783
:1046F0003FFFFFF743F9FFF7EDF9FFF71FF9002040
:1047000010BD000010B5044609A0FEF703FBFDF73D
:104710005FFD012802D12046FDF770FCFCF7A8FCE4
:1047200022460146BDE8104002A0FEF7F3BA0000A1
:104730000A000000257325730000000070B50546CF
:104740002C680BE0A4F1140106A0FEF7E3FA206840
:10475000A84202D004A0FEF7DDFA2468AC42F1D1F1
:1047600070BD0000257300002F00000010B5024648
:1047700000206FF02F0407E04B1C1360097800EB5A
:10478000800004EB4000084411680B78303B0A2B92
:10479000F2D310BD10B5024601E0521C491C14783A
:1047A0001CB10B780BB19C42F7D0101A10BD002041
:1047B0007047000010B518A0FEF7ACFA1A4C21881B
:1047C0001AA0FEF7A7FA2088C00702D01DA0FEF7A6
:1047D000A1FA2088800702D51DA0FEF79BFA208849
:1047E000400702D51DA0FEF795FA2088000702D5E4
:1047F0001CA0FEF78FFA2088C00502D51BA0FEF78B
:1048000089FA2088800502D51BA0FEF783FABDE84F
:10481000104004A0FEF77EBA75736167652066617B
:10482000756C743A0A0000002AED00E05343425FC1
:10483000434653525F554653523A307825303258EA
:1048400020000000554E444546494E535452200026
:10485000494E56535441544520000000494E56508D
:10486000432000004E4F435020000000554E414C65
:1048700049474E454420000044495642595A455242
:104880004F20000010B5FEF74FFF002010BD5F6DF8
:1048900073685F657865635F636D640066696E73F6
:1048A000685F73797374656D5F696E6974006669BA
:1048B0006E73685F6765745F70726F6D70745F6D43
:1048C0006F64650066696E73685F7365745F7072AC
:1048D0006F6D70745F6D6F64650066696E73685F9D
:1048E0007365745F6563686F0066696E73685F67A0
:1048F00065745F6563686F007274695F7374617279
:1049000074007274695F626F6172645F7374617264
:1049100074007274695F626F6172645F656E6400D7
:104920007274695F656E640072745F6170706C6947
:10493000636174696F6E5F696E69740072745F742D
:1049400068726561645F69646C655F6578637574DE
:10495000650072745F73656D5F696E69740072746F
:104960005F73656D5F6465746163680072745F7323
:10497000656D5F6372656174650072745F73656D08
:104980005F64656C6574650072745F73656D5F74F8
:10499000616B650072745F73656D5F72656C6561F4
:1049A00073650072745F73656D5F636F6E74726FB1
:1049B0006C0072745F6D757465785F696E69740000
:1049C00072745F6D757465785F64657461636800A7
:1049D00072745F6D757465785F637265617465008C
:1049E00072745F6D757465785F64656C657465007D
:1049F00072745F6D757465785F74616B6500727455
:104A00005F6D757465785F72656C65617365007262
:104A1000745F6D757465785F636F6E74726F6C0030
:104A200072745F6576656E745F696E697400727426
:104A30005F6576656E745F64657461636800727447
:104A40005F6576656E745F6372656174650072742C
:104A50005F6576656E745F64656C6574650072741D
:104A60005F6576656E745F73656E640072745F6512
:104A700076656E745F726563760072745F657665E5
:104A80006E745F636F6E74726F6C0072745F6D62D0
:104A90005F696E69740072745F6D625F64657461F2
:104AA00063680072745F6D625F6372656174650054
:104AB00072745F6D625F64656C6574650072745FCB
:104AC0006D625F73656E645F776169740072745FB5
:104AD0006D625F726563760072745F6D625F636FB3
:104AE0006E74726F6C0072745F6D715F696E697461
:104AF0000072745F6D715F646574616368007274E5
:104B00005F6D715F6372656174650072745F6D7172
:104B10005F64656C6574650072745F6D715F736569
:104B20006E645F776169740072745F6D715F757236
:104B300067656E740072745F6D715F726563760095
:104B400072745F6D715F636F6E74726F6C000000E2
:104B50000100020001000300010002000100040046
:104B60000100020001000300010002000100050035
:104B70000100020001000300010002000100040026
:104B80000100020001000300010002000100060014
:104B90000100020001000300010002000100040006
:104BA00001000200010003000100020001000500F5
:104BB00001000200010003000100020001000400E6
:104BC00001000200010003000100020001000700D3
:104BD00001000200010003000100020001000400C6
:104BE00001000200010003000100020001000500B5
:104BF00001000200010003000100020001000400A6
:104C00000100020001000300010002000100060093
:104C10000100020001000300010002000100040085
:104C20000100020001000300010002000100050074
:104C30000100020001000300010002000100040065
:104C400001000200010003000100020001003031F8
:104C50003233343536373839616263646566003023
:104C600031323334353637383941424344454600D2
:104C700072745F6672656500706C75675F686F6CF3
:104C800065730072745F73797374656D5F686561D5
:104C9000705F696E69740072745F6D616C6C6F63D4
:104CA0000072745F7265616C6C6F630072745F6F29
:104CB000626A6563745F696E69740072745F6F62C3
:104CC0006A6563745F6465746163680072745F6FC2
:104CD000626A6563745F616C6C6F636174650072B6
:104CE000745F6F626A6563745F64656C65746500A8
:104CF00072745F6F626A6563745F69735F737973FF
:104D000074656D6F626A6563740072745F6F626A66
:104D10006563745F6765745F747970650072745F52
:104D20006F626A6563745F66696E64005F72745F68
:104D30007363686564756C65725F737461636B5FE0
:104D4000636865636B0072745F7363686564756C38
:104D5000655F696E736572745F7468726561640023
:104D600072745F7363686564756C655F72656D6F9F
:104D700076655F746872656164005F72745F746801
:104D8000726561645F696E69740072745F746872E1
:104D90006561645F696E69740072745F74687265DE
:104DA00061645F737461727475700072745F7468AB
:104DB000726561645F6465746163680072745F74D6
:104DC00068726561645F64656C6574650072745FC8
:104DD0007468726561645F736C6565700072745F9E
:104DE0007468726561645F64656C61795F756E7427
:104DF000696C0072745F7468726561645F636F6E82
:104E000074726F6C0072745F7468726561645F7352
:104E1000757370656E640072745F74687265616446
:104E20005F726573756D650072745F746872656139
:104E3000645F74696D656F75740072745F74696D19
:104E400065725F696E69740072745F74696D657212
:104E50005F6465746163680072745F74696D657224
:104E60005F64656C6574650072745F74696D65720A
:104E70005F73746172740072745F74696D65725FE0
:104E800073746F700072745F74696D65725F636FC5
:104E90006E74726F6C00756172745F696E69740014
:104EA000252D2A2E73207072692020737461747509
:104EB0007320202020202073702020202020737455
:104EC00061636B2073697A65206D61782075736505
:104ED00064206C656674207469636B20206572724F
:104EE0006F720A0072745F6F626A6563745F6765F0
:104EF000745F74797065282673656D2D3E706172DC
:104F0000656E742E706172656E7429203D3D20526D
:104F1000545F4F626A6563745F436C6173735F5380
:104F2000656D6170686F7265000000002872745FC3
:104F300075626173655F7429282872745F75696E84
:104F400074385F74202A296D656D202B2053495ACF
:104F5000454F465F5354525543545F4D454D2920AC
:104F6000252052545F414C49474E5F53495A4520D2
:104F70003D3D2030000000002872745F75696E743A
:104F8000385F74202A29726D656D203E3D2028729D
:104F9000745F75696E74385F74202A296865617062
:104FA0005F707472202626202872745F75696E7493
:104FB000385F74202A29726D656D203C2028727438
:104FC0005F75696E74385F74202A29686561705F47
:104FD000656E64002872745F75626173655F742921
:104FE0006D656D202B2053495A454F465F535452EF
:104FF0005543545F4D454D202B2073697A65203C05
:105000003D202872745F75626173655F74296865FD
:1050100061705F656E64000072745F6F626A6563E1
:10502000745F6765745F74797065282872745F6F48
:10503000626A6563745F74297468726561642920AB
:105040003D3D2052545F4F626A6563745F436C61FB
:1050500073735F5468726561640068656C6C6F009F
:105060007361792068656C6C6F20776F726C640077
:1050700076657273696F6E0073686F772052542D76
:105080005468726561642076657273696F6E206919
:105090006E666F726D6174696F6E005F5F636D64E1
:1050A0005F76657273696F6E0073686F7720525414
:1050B0002D5468726561642076657273696F6E2025
:1050C000696E666F726D6174696F6E006C6973747E
:1050D0005F746872656164006C69737420746872CF
:1050E000656164005F5F636D645F6C6973745F74B6
:1050F0006872656164006C697374207468726561BC
:1051000064006C6973745F73656D006C69737420FF
:1051100073656D6170686F726520696E2073797355
:1051200074656D005F5F636D645F6C6973745F735A
:10513000656D006C6973742073656D6170686F7262
:105140006520696E2073797374656D006C69737482
:105150005F6576656E74006C697374206576656E44
:105160007420696E2073797374656D005F5F636D81
:10517000645F6C6973745F6576656E74006C6973E7
:1051800074206576656E7420696E2073797374651A
:105190006D006C6973745F6D75746578006C69730C
:1051A00074206D7574657820696E207379737465E9
:1051B0006D005F5F636D645F6C6973745F6D7574C0
:1051C0006578006C697374206D7574657820696EFC
:1051D0002073797374656D006C6973745F6D6169B8
:1051E0006C626F78006C697374206D61696C206209
:1051F0006F7820696E2073797374656D005F5F63EB
:105200006D645F6C6973745F6D61696C626F780067
:105210006C697374206D61696C20626F7820696EAF
:105220002073797374656D006C6973745F6D736757
:105230007175657565006C697374206D6573736154
:10524000676520717565756520696E207379737463
:10525000656D005F5F636D645F6C6973745F6D7330
:10526000677175657565006C697374206D6573731E
:1052700061676520717565756520696E2073797346
:1052800074656D006C6973745F74696D6572006C30
:105290006973742074696D657220696E2073797307
:1052A00074656D005F5F636D645F6C6973745F74D8
:1052B000696D6572006C6973742074696D65722024
:1052C000696E2073797374656D006C697374006C1A
:1052D00069737420616C6C2073796D626F6C2069E6
:1052E0006E2073797374656D005F5F636D645F68D2
:1052F000656C700052542D54687265616420736847
:10530000656C6C2068656C702E005F5F636D645F18
:105310007073004C697374207468726561647320E3
:10532000696E207468652073797374656D2E005FF3
:105330005F636D645F667265650053686F772074A4
:105340006865206D656D6F72792075736167652082
:10535000696E207468652073797374656D2E006CB6
:105360006973745F6D656D006C697374206D656D34
:105370006F727920757361676520696E666F726DF3
:105380006174696F6E000000F8480008D546000897
:1053900002490008CD460008964E0008AF470008B5
:1053A00012490008C94600089C4800082D11000851
:1053B00020490008D14600085A50000860500008F3
:1053C000A1140008705000087850000885480008B3
:1053D0009B500008A950000885480008CC500008E0
:1053E000D8500008D91B0008E4500008F650000807
:1053F000D91B0008025100080B510008B91A000817
:105400002451000833510008B91A00084C51000813
:1054100057510008251500086C5100087D510008FF
:1054200025150008925100089D510008C119000877
:10543000B2510008C3510008C1190008D851000832
:10544000E5510008E9160008FD5100081052000857
:10545000E91600082852000836520008951800087E
:10546000535200086752000895180008845200083B
:105470008F520008A11D0008A4520008B552000870
:10548000A11D0008CA520008CF520008C11400082C
:10549000E9520008F4520008592100080A53000894
:1054A00013530008671000082F5300083A530008F0
:1054B0005D1000085F5300086853000829180008B1
:1054C000E05400080000002004010000E80100088A
:1054D000E45500080401002004470000040200080D
:1054E0000095BA0A00000000000000000102030459
:1054F000060708090000000001020304010203047A
:10550000060708090000000000000000000000007D
:10551000000000000000000000000000000000008B
:10552000000000000000000000000000000000007B
:10553000000000000000000000000000000000006B
:10554000000000000000000000000000000000005B
:10555000000000000100000078000020780000201A
:105560008000000002000000880000208800002069
:105570002000000003000000980000209800002098
:105580002400000004000000A8000020A800002063
:105590002000000005000000B8000020B800002036
:1055A0003000000006000000C8000020C8000020F5
:1055B0003C0000000A000000D8000020D8000020B5
:1055C0002C000000000000000000000000000000AF
:1055D00000000000000000000000000000000000CB
:0455E00000000000C7
:04000005080001AD41
:00000001FF
