:020000040800F2
:100000001048002049020008BB0800082D03000822
:10001000B908000881060008B10C000800000000C3
:10002000000000000000000000000000F9090008C6
:100030008306000800000000B7020008FD0A00085F
:1000400063020008630200086302000863020008FC
:1000500063020008630200086302000863020008EC
:1000600063020008850600086302000863020008B6
:1000700063020008630200086302000863020008CC
:1000800063020008630200086302000863020008BC
:1000900063020008630200086302000863020008AC
:1000A000630200086302000863020008630200089C
:1000B000630200086302000863020008630200088C
:1000C000630200086302000863020008630200087C
:1000D000630200086302000863020008630200086C
:1000E000630200086302000863020008630200085C
:1000F000630200086302000863020008630200084C
:10010000630200086302000863020008630200083B
:10011000630200086302000863020008630200082B
:10012000630200086302000863020008630200081B
:10013000630200086302000863020008630200080B
:1001400063020008630200086302000863020008FB
:1001500063020008630200086302000863020008EB
:1001600063020008630200086302000863020008DB
:1001700063020008630200086302000863020008CB
:1001800063020008630200086302000863020008BB
:1001900063020008630200086302000863020008AB
:1001A00063020008630200086302000800F002F81E
:1001B00000F03AF80AA090E8000C82448344AAF1C7
:1001C0000107DA4501D100F02FF8AFF2090EBAE8C5
:1001D0000F0013F0010F18BFFB1A43F0010318477B
:1001E0006451000084510000103A24BF78C878C1DF
:1001F000FAD8520724BF30C830C144BF04680C602D
:10020000704700000023002400250026103A28BF74
:1002100078C1FBD8520728BF30C148BF0B60704778
:100220001FB51FBD10B510BD00F0EBF91146FFF76B
:10023000F7FF00F020FA00F009FA03B4FFF7F2FF2D
:1002400003BC00F011FA0000094880470948004744
:10025000FEE7FEE7FEE7FEE7FEE7FEE7FEE7FEE776
:10026000FEE7FEE704480549054A064B70470000D3
:100270007D0B0008AD01000810420020104800204E
:100280001044002010440020EFF3108072B6704735
:1002900080F310887047324A1368012B04D04FF066
:1002A000010313602F4A10602F4A11602F484FF04E
:1002B000805101607047EFF3108272B628480168E0
:1002C00091B14FF0000101602648016829B1EFF3B8
:1002D000098121E9F00F0068016023490968096874
:1002E000B1E8F00F81F3098882F310884EF0040E14
:1002F00070471D4908601B494FF00000086018490D
:100300004FF0010008601A481A49D0F8002041EA6D
:100310000201016015484FF08051016016480068E5
:10032000006880F3088861B662B670471EF0040F5B
:100330000CBFEFF30880EFF3098020E9F00F40F8DD
:1003400004ED1EF0040F0CBF80F3088880F30988C9
:1003500000B502F083FB5DF804EB4EF0040E70472D
:1003600050000020480000204C00002004ED00E078
:1003700020ED00E00000FFFF08ED00E040EA01038F
:10038000024630B59B0710D14FF0013400E008C29F
:1003900008C91D1B9D4315EAC41FF8D013F0FF01C7
:1003A00002F8011B0DD01B0AF8E711F8013B002BE6
:1003B00002F8013B05D011F8013B002B02F8013B8C
:1003C000F3D130BD10B5431C02E010F8011B71B130
:1003D0008107FAD14FF0013202C88C1A8C4314EA1B
:1003E000C211F9D0C01A0A0603D0C01E10BDC01A2F
:1003F00010BD0A0401D0801E10BD0902FCD0401EB1
:1004000010BD40EA010370B59B072ED14FF00136B5
:10041000042A2AD308C810C99D1B9D43121F15EA40
:10042000C61517D0D8B2E1B2401A50EA056110D112
:1004300098B2A1B2401A50EA05410AD123F07F4098
:1004400024F07F41401A50EA052102D1180EA0EB9A
:10045000146070BDA342DBD018BA21BA884201D91A
:10046000012070BD4FF0FF3070BD0AB9002070BD93
:1004700010F8013B11F8014B63B1A3420AD1521E9F
:1004800008D010F8013B11F8014B1BB1A34201D178
:10049000521EEDD1181B70BD421E12F8013F002BF9
:1004A000FBD111F8013B002B02F8013BF9D1704759
:1004B00010B5203AC0F00B80B1E81850203AA0E8FF
:1004C0001850B1E81850A0E81850BFF4F5AF5FEA33
:1004D000027C24BFB1E81850A0E8185044BF18C9E6
:1004E00018C0BDE810405FEA827C24BF51F8043B8D
:1004F00040F8043B08BF7047D20728BF31F8023BE1
:1005000048BF11F8012B28BF20F8023B48BF00F874
:10051000012B70474FF000020429C0F0128010F048
:10052000030C00F01B80CCF1040CBCF1020F18BFCF
:1005300000F8012BA8BF20F8022BA1EB0C0100F062
:100540000DB85FEAC17C24BF00F8012B00F8012B35
:1005500048BF00F8012B70474FF0000200B513466A
:1005600094469646203922BFA0E80C50A0E80C50D3
:10057000B1F12001BFF4F7AF090728BFA0E80C5084
:1005800048BF0CC05DF804EB890028BF40F8042B7D
:1005900008BF704748BF20F8022B11F0804F18BFEA
:1005A00000F8012B704710B5044610F0030F08BF88
:1005B00011F0030F40F015804FF0013E121FC0F202
:1005C0000E8051F8043BA3EB0E0C2CEA030C1CEA42
:1005D000CE1C08BF40F8043BF0D0A1F1040102F1A9
:1005E0000402521E08DB11F8013B002B00F8013B0E
:1005F000F7D11146FFF78EFF204610BD70477047B8
:100600007047754600F02CF8AE4605006946534623
:1006100020F00700854618B020B5FFF723FEBDE89F
:1006200020404FF000064FF000074FF000084FF059
:10063000000B21F00701AC46ACE8C009ACE8C009EA
:10064000ACE8C009ACE8C0098D46704710B5044657
:10065000AFF300802046BDE81040FFF7EEBD00007C
:1006600000487047B041002001491820ABBEFEE7AA
:1006700026000200704710B503F09AFF002010BD5D
:10068000FEE7704710B5082000F016F8002809D0E2
:100690000548016881F002010160BDE810400820B2
:1006A00000F004B810BD00001404024001490860C5
:1006B00070470000143C0140034A014600201268C4
:1006C0000A4200D001207047143C014030B51A495D
:1006D0008379026853B30B6893430B600A1D136858
:1006E0000468A343136002790A441368046823432F
:1006F0001360114A083213680468A3431360131D82
:100700001C680568AC431C604479102C05D021445A
:100710000A68006802430A6030BD1168046821431A
:100720001160196800680143196030BD0079084400
:1007300001689143016030BD003C014070B586B056
:100740000121802000F0F6F80121880300F0FEF876
:100750004FF4C06000F0E4F809208DF8080001248F
:100760008DF809408DF80A408DF80B4002A800F082
:10077000A5F8002608258DF8106003958DF8134024
:1007800003A90A4800F014F80321072000F036F905
:100790008DF804600C208DF8050000958DF806405A
:1007A0006846FFF793FF06B070BD0000001C0240D2
:1007B000F0B50023012403270D6804FA03F2154065
:1007C000954242D1D0F800C05E0007FA06F52CEA47
:1007D000050CC0F800C091F804C0D0F800E00CFA95
:1007E00006FC4CEA0E0CC0F800C091F804C0BCF145
:1007F000010F02D0BCF1020F1FD1D0F808C02CEAC3
:10080000050CC0F808C091F805C0D0F808E00CFA53
:1008100006FC4CEA0E0CC0F808C0D0F804C02CEA64
:10082000020CC0F804C0426891F806C00CFA03FC40
:100830001FFA8CFC42EA0C024260C268AA43C26002
:10084000CA79C568B2402A43C2605B1C102BB3D37F
:10085000F0BD4B07DB0E9A40C90810B500EB8100D4
:10086000016A0F249C40A1430162016A11430162A5
:1008700010BD00007CB50121022000F05BF80124CE
:100880008DF8044000208DF806008DF80740094ED1
:1008900002258DF80500009569463046FFF788FF70
:1008A000694630460094FFF783FF02481830058000
:1008B00004807CBD00040240FEE7704730B50F2283
:1008C000C47801780123FCB1144C246801F1E021C3
:1008D00004F4E064C4F5E064C4F30724C4F104053F
:1008E000E2404478AC408578154025432A0181F8E0
:1008F0000024007800F01F018B404009800000F1C7
:10090000E020C0F8003130BD01F01F0083404809ED
:10091000800000F1E020C0F8803130BD0CED00E037
:100920000249084302490860704700000000FA05C8
:100930000CED00E0044A0029116801D0014300E0F9
:10094000814311607047000030380240044A00299A
:10095000116801D0014300E081431160704700003D
:100960004438024070B5204A1168204C11F00C0147
:1009700004D01F4E042903D0082903D004601BE0D3
:10098000066019E01849091F0B68C3F380550B680E
:1009900003F03F0315B1B6FBF3F301E0B4FBF3F34F
:1009A0000C680968C4F388146343C1F30141491C0E
:1009B0004900B3FBF1F1016011680F2303EA111143
:1009C0000C4B5C5C0168E14041601468072505EA56
:1009D00094241C5D21FA04F48460126805EA523202
:1009E0009A5CD140C16070BD083802400024F40018
:1009F00040787D01140000207047000010B58A0780
:100A000021F003040849130F21440F22D1F80848AC
:100A10009A409443C1F80848D1F808289840024306
:100A2000C1F8082810BD0000003001401CB50020AE
:100A30002E49019000900A6842F480320A604FF417
:100A4000A0430A6802F400320092019A521C0192FB
:100A5000009A12B9019A9A42F3D10A68920342D5D8
:100A60000120009021484030026842F0805202602C
:100A70001F48026842F4404202601C4A0832136870
:100A80001360136843F400431360136843F4A053E6
:100A90001360141F174B23600B6843F080730B60C7
:100AA0000B689B01FCD5016841F48031016041680D
:100AB000C903FCD5016841F4003101604168890334
:100AC000FCD50D4940F205700860106820F0030065
:100AD0001060106840F0020010601068C0F38100E0
:100AE0000228FAD11CBD00901CBD00000038024055
:100AF00000700040195A4007003C024002F020BC40
:100B000070B51A4C20681A4A10F00C01194804D02C
:100B1000194D042903D0082903D002601BE00560A9
:100B200019E01249091F0B68C3F380560B6803F0E4
:100B30003F0316B1B5FBF3F201E0B2FBF3F20B6831
:100B40000968C3F388135A43C1F30141491C4900A2
:100B5000B2FBF1F101602168064AC1F30311121DD5
:100B6000515C0268CA40026070BD00000838024053
:100B70000024F4000000002040787D010F4810B5EB
:100B8000016841F0010101600C4A00210832116046
:100B900002680B4B1A400260031D0A4A1A60026881
:100BA00022F48022026005480C300160FFF73EFF0E
:100BB00005494FF00060086010BD00000038024099
:100BC000FFFFF6FE1030002408ED00E0C94301806D
:100BD00070470029818902D041F4005101E021F4DD
:100BE0000051818170470246002012880A4200D0DD
:100BF000012070477FB50446008A0D4620F440511D
:100C0000E88808432082A08941F20C618843A988C2
:100C10002A8911436A8902431143A181A08A20F4E1
:100C20004071A8890843A0826846FFF79BFE1A48D6
:100C3000844202D01948844201D1039800E002980E
:100C4000A189090400EBC00101EB0010296801D55E
:100C5000490000E08900B0FBF1F26420B2FBF0F142
:100C600009010B096FF018056B4302EB8302A3899E
:100C70001D044FF0320306D503EBC202B2FBF0F0C5
:100C800000F0070005E003EB0212B2FBF0F000F009
:100C90000F00084320817FBD001001400014014077
:100CA0008088C0F308007047C1F308018180704755
:100CB000FEE70000002807D00E4910F0FF0F04D017
:100CC00051FA80F00078401C704710F47F4F04D038
:100CD000C0F30720085C0930704710F47F0F04D080
:100CE000C0F30740085C1130704701EB10600078DA
:100CF00019307047D24900082DE9F04F89B01746E6
:100D00008B4606004FF0000405D140F2371225490A
:100D100025A001F081FC3FB94FF49C72214923A02A
:100D200001F07AFC00E0641C305D202803D0092823
:100D300001D05C45F7D34FF0FF3984B31D4804F16F
:100D4000060ADFF87480056811E006221BA12868F6
:100D5000FFF757FB50B9286822463146801DFFF740
:100D600050FB18B9296811F80A0028B10C35D8F8D9
:100D700000008542E9D313E0AC6884B120216846C5
:100D8000FFF7EAFB6A465946304601F051FA30B1A6
:100D90006946A0473860002009B0BDE8F08FFFE742
:100DA0004846F9E712470008636D64007265747085
:100DB000000000002C000020300000205F5F636D09
:100DC000645F000010B5040004D15022114912A044
:100DD00001F022FCA06A0178232906D1E169814251
:100DE00003D9E26A02448A420AD221460FA001F0E6
:100DF000B7FF00F011FFFFF747FA0028FDD110BD43
:100E000020308142FBD82146BDE810400EA001F001
:100E1000A7BF0000B04B00087468726561642021B0
:100E20003D2052545F4E554C4C0000007468726572
:100E300061643A257320737461636B206F76657209
:100E4000666C6F770A0000007761726E696E673AB0
:100E500020257320737461636B20697320636C6F4A
:100E6000736520746F20656E64206F6620737461F3
:100E7000636B20616464726573732E0A0000000066
:100E80002DE9FC411F460446DDE90831DDE90A652C
:100E9000143040600060C4E90827C4E90A310A46FA
:100EA0002321184602F0BCF8D4E90A014218D4E91B
:100EB0000801124B121F01F0DDFEE061202E04D369
:100EC000A7220F490FA001F0A7FB84F8366084F831
:100ED000356000206564A063A564206384F8340055
:100EE000A067E0670090234601900F4A194604F17D
:100EF0004C0003F0FFF80020BDE8FC8181390008B8
:100F0000FE4B00087072696F72697479203C205240
:100F1000545F5448524541445F5052494F524954DE
:100F2000595F4D4158000000813D000810B5029CFA
:100F300024F001044472C0E907120021C0E909311C
:100F400014304060006010BD143001F050BF70B527
:100F50000546FFF799F9A96F044609B12846884765
:100F60002046BDE87040FFF793B9000010B51BA004
:100F700001F0F6FE1C4C21781CA001F0F1FE207857
:100F8000C00702D01FA001F0EBFE2078800702D539
:100F90001FA001F0E5FE2078400702D51FA001F058
:100FA000DFFE2078000702D520A001F0D9FE2078CE
:100FB000C00602D520A001F0D3FE2078000607D598
:100FC00009480F300168BDE810401DA001F0C8BEFF
:100FD000BDE810401EA001F0C3BE00006275732082
:100FE0006661756C743A0A0029ED00E05343425F74
:100FF000434653525F424653523A30782530325876
:101000002000000049425553455252200000000084
:10101000505245434953455252200000494D5052C9
:10102000454349534552522000000000554E535449
:101030004B4552522000000053544B455252200061
:101040005343422D3E424641523A253038580A0019
:101050000A00000010B500F00BFC002010BD10B518
:1010600000F0DAFD002010BD104810B5416991F87C
:101070002110890703D40E490020087014E001698B
:1010800029B14FF480720A48FFF78DFA0CE001F0A5
:10109000CDF808B107A100E008A10548FFF76EF9F7
:1010A00008A10348FFF7F8F9014810BD2C00002003
:1010B0000C0100206D7368200000000066696E73EB
:1010C000682000003E00000070B5084C05466069CD
:1010D00020B9A422064907A001F09EFA606910F821
:1010E000211F65F34101017070BD00002C0000203C
:1010F000484700087368656C6C20213D2052545F9E
:101100004E554C4C00000000014AC2E900017047F6
:101110002C0000207CB516491648FFF7F5FF782112
:10112000012001F0AFFA144C6061D0B10A21152002
:10113000CDE900014FF480630022104910A002F0B5
:10114000F8FB054600231A460FA1606902F0A4F9D6
:101150000120FFF7B9FF15B1284602F071FD00200C
:101160007CBD0BA001F0FCFD4FF0FF307CBD00000A
:10117000445300083C5200082C000020A91100082C
:10118000747368656C6C000073687278000000000E
:101190006E6F206D656D6F727920666F7220736857
:1011A000656C6C0A00000000984D686910F8211FFA
:1011B00041F001010170FFF757FF01F0D1FD00265A
:1011C00001F00AFC0400FBD41B2C07D0686990F8DE
:1011D0002010012907D002290ED017E069690120EB
:1011E00081F82000ECE75B2C02D080F820600DE055
:1011F000022180F82010E3E780F82060412CDFD046
:10120000422CDDD0442C38D0432C43D0002CD7D0F6
:10121000FF2CD5D0092C4ED07F2C75D0082C73D044
:101220000D2C70D00A2CFCD0B0F87210502901D3CC
:10123000A0F87260B0F87430B0F872108B427DD2B2
:10124000CA1A00F1220123301944184401F0CEFEDD
:101250006869B0F8741022300C54686990F8211055
:10126000C90706D0B0F874102230014468A001F01C
:1012700077FD6869B0F87440A5E0B0F87400002804
:101280009ED064A001F06CFD686930F8741F491E9F
:10129000018095E7B0F87410B0F8722091428FD2B7
:1012A0002230095C5CA001F05BFD696931F8740FC4
:1012B000401C088084E7002403E056A001F050FDA4
:1012C000641C6869B0F87400A042F6DC6C6953A035
:1012D000223401F045FD00F0A9FF012802D120468B
:1012E00000F0E0FEFFF7C0FE014622464CA001F0F0
:1012F00037FD68692230FFF765F8696921F8720FD8
:1013000048805DE700E03DE0B0F87420002AC0D0DE
:10131000B0F87210521E491E89B293B2A0F8721032
:10132000A0F87430994224D9CA1A00F1230122305E
:101330001944184401F05AFE686900E049E0B0F829
:10134000721022300E546869B0F8741022300144D3
:1013500035A001F005FD6869B0F8744003E02DA0E8
:1013600001F0FEFC641C6869B0F87200A04290DBDA
:10137000F5E72FA001F0F4FC6869B0F87210223094
:101380000E541DE700F052FF01280DD1686990F856
:101390002100C00702D021A001F0E2FC6869B0F88A
:1013A0007210223000F0D4FEFFF75EFE01F0D8FC90
:1013B000686950212230FFF7ADF8686922E015A076
:1013C00001F0CEFC641C6869B0F87200A042F6DC43
:1013D0000AE022300C54686990F82100C00703D05D
:1013E00021460DA001F0BCFC6869B0F87210491CE0
:1013F00089B2A0F87210B0F87420521CA0F87420C2
:101400005029BED320F8726F4680D9E62C00002008
:101410002573000008000000256300000A0000009A
:1014200025732573000000000825732020080000A4
:101430000820080010B5124C2068800702D511A0C2
:1014400001F08EFC2068400011D50D48C01E0078C8
:1014500008B1FFF78BFD0A48001F007808B100F0C3
:10146000B5FD0748801E008808B103F0E5F8206844
:10147000002804DABDE8104008A001F071BC10BDDE
:101480002CED00E06661696C656420766563746FBD
:10149000722066657463680A000000006465627506
:1014A00067206576656E740A0000000010B502A022
:1014B00001F056FC002010BD48656C6C6F20525442
:1014C0002D546872656164210A000000064E0224F2
:1014D0004FF4FA75B71E3480284602F04EFA3C806D
:1014E000284602F04AFAF6E71A040240064E0124A2
:1014F0004FF4FA75B71C3480284602F03EFA3C805F
:10150000284602F03AFAF6E71804024070B50CA03B
:1015100001F026FC0F48104D04680BE002220FA1D9
:101520002068FEF76EFF20B1D4E900120CA001F094
:1015300017FC0C3428688442F0D3002070BD0000F2
:101540002D2D46756E6374696F6E204C6973743A05
:101550000A0000002C000020300000205F5F000027
:10156000252D313673202D2D2025730A0000000013
:101570002DE9F04194B000262BA408230BAA0421E6
:1015800005A800F08DF8082080460146224628A0D4
:1015900001F0E6FB404600F0FFFE2EA001F0E0FB6C
:1015A00005A9304600F08EF80646002533E00BA86A
:1015B00050F825400C3CFEF767FE217A9DF81C2070
:1015C00021F08001914202D0FEF762FE22E0FEF798
:1015D0005FFE04F1140061690746814212D038466B
:1015E00001F0EAFBE169CDE90010234608224146FB
:1015F00020A001F0B5FB384602F0F0FF14A001F086
:10160000AFFB07E0E06900902346082241461FA097
:1016100001F0A6FB6D1C0998A842C8DC002EBFD1C2
:1016200014B00020BDE8F0816576656E740000009E
:10163000252D2A2E73202020202020736574202041
:10164000202073757370656E6420746872656164C0
:101650000A00000020202D2D2D2D2D2D2D2D2D2D7E
:10166000202D2D2D2D2D2D2D2D2D2D2D2D2D2D0ADA
:1016700000000000252D2A2E2A73202030782530E6
:10168000387820253033643A00000000252D2A2EBA
:101690002A73202030782530387820300A00000066
:1016A0002DE9F04104461E4617460D46084601F056
:1016B000ADFD001D2060257200206760C4E9036055
:1016C000BDE8F0812DE9F0410D4600212961E9686E
:1016D00091B1297A81B12E6888B10446FEF7D4FD14
:1016E0000146A4F10C002A7A007A20F08000904292
:1016F00009D00846FEF7CCFD0020BDE8F081344655
:10170000FEF7C2FD0146686800272468B44201D193
:10171000002404E010C0EA687F1CBA42F5D10846F4
:10172000FEF7B6FD20462F61E7E700002DE9F04106
:1017300096B000262FA408230CAA052106A8FFF7BF
:10174000AFFF08208046014622462CA001F008FB8E
:10175000404600F021FE32A001F002FB06A930460F
:10176000FFF7B0FF064600253BE00CA850F82540E7
:101770000C3CFEF789FD0146207A9DF8202020F0E0
:1017800080009042084602D0FEF782FD28E0FEF776
:101790007FFD606904F11407B842384613D001F0A8
:1017A0000BFB228C618C0091CDE90120234608229D
:1017B000414622A001F0D4FA384602F00FFF25A0DE
:1017C00001F0CEFA0CE001F0F7FA218C628CCDE941
:1017D000002102902346082241461FA001F0C0FAD2
:1017E0006D1C0A98A842C0DC002EB7D116B00020AC
:1017F000BDE8F0816D61696C626F7800252D2A2E3D
:101800007320656E7472792073697A6520737573BD
:1018100070656E64207468726561640A000000007F
:10182000202D2D2D2D20202D2D2D2D202D2D2D2D1C
:101830002D2D2D2D2D2D2D2D2D2D0A00252D2A2E32
:101840002A73202530346420202530346420256418
:101850003A0000000A000000252D2A2E2A732025B8
:101860003034642020253034642025640A000000D0
:1018700010B5074C07A0E16801F072FA0AA02169CF
:1018800001F06EFA6169BDE810400CA001F068BA81
:1018900064000020746F74616C206D656D6F7279E7
:1018A0003A2025640A00000075736564206D656D3B
:1018B0006F7279203A2025640A0000006D61786912
:1018C0006D756D20616C6C6F6361746564206D650E
:1018D0006D6F72793A2025640A0000002DE9F0410D
:1018E00094B000262CA408230BAA062105A8FFF714
:1018F000D7FE08208046014622462AA001F030FA91
:10190000404600F049FD2EA001F02AFA05A9304614
:10191000FFF7D8FE0646002535E00BA850F8254015
:101920000C3CFEF7B1FC217A9DF81C2021F08001CF
:10193000914202D0FEF7ACFC24E0FEF7A9FC6069FE
:1019400004F11407B842384611D001F035FAA18CE1
:10195000CDE900102346082241461FA001F000FAFD
:10196000384602F03BFE21A001F0FAF90AE001F04E
:1019700023FAA18CCDE900102346082241461CA081
:1019800001F0EEF96D1C0998A842C6DC002EBDD10D
:1019900014B00020BDE8F0816D73677175657565E1
:1019A00000000000252D2A2E7320656E74727920A8
:1019B00073757370656E64207468726561640A0083
:1019C000202D2D2D2D20202D2D2D2D2D2D2D2D2D6E
:1019D0002D2D2D2D2D0A0000252D2A2E2A73202590
:1019E000303464202025643A000000000A00000022
:1019F000252D2A2E2A732025303464202025640AC0
:101A000000000000F0B595B0002623A408230DAA1D
:101A1000032107A8FFF744FE08272246394620A0E5
:101A200001F09EF9384600F0B7FC26A001F098F9C5
:101A300007A93046FFF746FE0646002523E00DA81D
:101A400050F825400C3CFEF71FFC217A9DF824201D
:101A500021F08001914202D0FEF71AFC12E0FEF75D
:101A600017FC04F1140001F0A7F9E17F226A0823B2
:101A7000CDE90032CDE9021023460822394619A0EB
:101A800001F06EF96D1C0B98A842D8DC002ECFD166
:101A900015B00020F0BD00006D7574657800000081
:101AA000252D2A2E732020206F776E6572202068E6
:101AB0006F6C642073757370656E642074687265F2
:101AC00061640A00202D2D2D2D2D2D2D2D202D2D45
:101AD0002D2D202D2D2D2D2D2D2D2D2D2D2D2D2D43
:101AE0002D0A0000252D2A2E2A7320252D382E2A76
:101AF0007320253034642025640A00002DE9F0416C
:101B000094B000262CA408230BAA022105A8FFF7F5
:101B1000C7FD08208046014622462AA001F020F990
:101B2000404600F039FC2EA001F01AF905A9304614
:101B3000FFF7C8FD0646002535E00BA850F8254004
:101B40000C3CFEF7A1FB217A9DF81C2021F08001BE
:101B5000914202D0FEF79CFB24E0FEF799FB6069FE
:101B600004F11407B842384611D001F025F9A18BD1
:101B7000CDE900102346082241461FA001F0F0F8ED
:101B8000384602F02BFD15A001F0EAF80AE001F05A
:101B900013F9A18BCDE900102346082241461AA073
:101BA00001F0DEF86D1C0998A842C6DC002EBDD1FC
:101BB00014B00020BDE8F08173656D6170686F72CC
:101BC00065000000252D2A2E7320762020207375B5
:101BD0007370656E64207468726561640A00000049
:101BE000202D2D2D202D2D2D2D2D2D2D2D2D2D2D3F
:101BF0002D2D2D0A00000000252D2A2E2A732025C8
:101C00003033642025643A00252D2A2E2A7320259E
:101C10003033642025640A002DE9F041B6B0002677
:101C20003CA408232EAA012128A8FFF739FD08208B
:101C3000804601462246394801F092F8404600F0BD
:101C4000ABFB37A001F08CF828A93046FFF73AFD2E
:101C50000646002554E02EA850F825400C3CFEF71F
:101C600013FB0746207A9DF8A81020F080008842D8
:101C700003D03846FEF70CFB41E08022214604A841
:101C8000FEF716FC3846FEF703FB94F8350000908B
:101C900023460822414632A001F062F894F834004D
:101CA00000F00F00012807D0022807D040B1042817
:101CB00008D0032808D00AE02CA006E02EA004E0FB
:101CC00030A002E032A000E034A001F049F8A06AA0
:101CD000014600E0401C0278232AFBD0E26A401A49
:101CE000101A64235843B0FBF2F3276BA06CCDE9C4
:101CF0000007E069081A81182BA001F031F86D1C6B
:101D00002C98A842A7DC002E9ED136B00020BDE85A
:101D1000F08100007468726561640000244D000861
:101D2000202D2D2D20202D2D2D2D2D2D2D202D2D17
:101D30002D2D2D2D2D2D2D2D202D2D2D2D2D2D2DE0
:101D40002D2D2D20202D2D2D2D2D2D20202D2D2DF7
:101D50002D2D2D2D2D2D2D202D2D2D0A0000000097
:101D6000252D2A2E2A7320253364200020726561D8
:101D700064792020000000002073757370656E6424
:101D80000000000020696E6974202020000000001F
:101D900020636C6F73652020000000002072756E58
:101DA0006E696E670000000020307825303878209A
:101DB00030782530387820202020253032642525C1
:101DC00020202030782530387820253033640A00F0
:101DD000F0B593B0002626A408230BAA0A2104A874
:101DE000FFF75EFC08272246394623A000F0B8FF23
:101DF000384600F0D1FA2AA000F0B2FF04A930461C
:101E0000FFF760FC0646002524E00BA850F82540AB
:101E10000C3CFEF739FA217A9DF8182021F0800158
:101E2000914202D0FEF734FA13E0FEF731FAD4E91A
:101E30000901CDE9000123460822394621A000F01E
:101E40008FFF607AC00701D024A000E026A000F038
:101E500087FF6D1C0898A842D7DC002ECED102F077
:101E600019F8014624A000F07BFF13B00020F0BD5C
:101E700074696D6572000000252D2A2E7320207074
:101E80006572696F64696320202074696D656F7580
:101E90007420202020202020666C61670A0000004A
:101EA000202D2D2D2D2D2D2D2D2D2D202D2D2D2D7C
:101EB0002D2D2D2D2D2D202D2D2D2D2D2D2D2D2D5F
:101EC0002D2D0A00252D2A2E2A7320307825303812
:101ED00078203078253038782000000061637469FC
:101EE00076617465640A0000646561637469766193
:101EF0007465640A0000000063757272656E742078
:101F00007469636B3A3078253038780A0000000035
:101F10002DE9FC410A250326CDE900654FF4007741
:101F20003B460022104911A001F003FD114C3B4635
:101F300000222060CDE900650F4910A001F0F9FCF6
:101F40006060206870B101F07BFE0EA000F008FF19
:101F5000606838B101F074FE11A000F001FF0020AC
:101F6000BDE8FC810120FBE7CD1400086C656431FD
:101F70000000000024000020ED1400086C656432AD
:101F8000000000006C6564315F74687265616420F4
:101F9000737563636573732E2E2E0D0A00000000A7
:101FA0006C6564325F746872656164207375636325
:101FB0006573732E2E2E0D0A0000000010B500F080
:101FC00093FBBDE81040FFF7A3BF000010B518A0B9
:101FD00000F0C6FE1B4C21781BA000F0C1FE20784B
:101FE000C00702D01EA000F0BBFE2078800702D5FB
:101FF0001EA000F0B5FE2078000702D51EA000F05C
:10200000AFFE2078C00602D51EA000F0A9FE207801
:10201000000607D50B480C300168BDE810401CA035
:1020200000F09EBEBDE810401D4800F099BE0000C3
:102030006D656D206D616E616765206661756C749C
:102040003A0A000028ED00E05343425F43465352F2
:102050005F4D4653523A3078253032582000000008
:102060004941434356494F4C2000000044414343FB
:1020700056494F4C200000004D554E53544B45528D
:10208000522000004D53544B455252200000000096
:102090005343422D3E4D4D41523A253038580A00A7
:1020A000A84600082DE9F0478046002500782C4618
:1020B00018B12248224F066831E0BDE8F047002100
:1020C000084600F077B806221EA13068FEF799F99D
:1020D00020BB306800F106094046FEF773F902465E
:1020E00049464046FEF78DF9C0B925B94C464846E9
:1020F000FEF768F905464946204601E0401C491CA8
:1021000002781AB10B780BB19A42F7D0001BA842A3
:1021100000DA054649460DA000F022FE0C3638686C
:102120008642D0D3002C06D02A4621464046BDE840
:10213000F04701F031BBBDE8F08700002C00002023
:10214000300000205F5F636D645F000025730A004C
:1021500038B5044601E0491E641C59B12078202896
:10216000F9D00928F7D06A462046FEF7C5FD18B118
:10217000204604E0002038BD009838BD401C01789E
:10218000202901D00029F9D100210170214603A0A6
:1021900000F0E6FD4FF0FF3038BD000025733A2017
:1021A000636F6D6D616E64206E6F7420666F756E07
:1021B000642E0A0070B50EA000F0D2FD1348144D35
:1021C00004680CE0062213A12068FEF71AF928B96A
:1021D000D4E9001211A0891D00F0C2FD0C3428685A
:1021E0008442EFD310A000F0BBFD002070BD0000C2
:1021F00052542D546872656164207368656C6C205C
:10220000636F6D6D616E64733A0A00002C000020EC
:10221000300000205F5F636D645F0000252D313664
:1022200073202D2025730A000A000000012070474A
:1022300070B5002315461C461A464BE000F8012BEA
:102240005B1C0678202E01D0092E01D18B42F5D3DC
:10225000082C11D321A000F083FD002606E000BF6A
:1022600055F8261025A000F07BFD761CA642F7D37A
:1022700021A000F075FD2FE08B422DD2F6B2222E68
:1022800003D045F82400641C1BE0401C45F82400E2
:102290005B1C641C08E05C2E04D14678222E01D120
:1022A000401C5B1C401C5B1C0678222E01D08B421C
:1022B000F1D38B4210D200F8012B5B1C0AE0401CCA
:1022C0005B1C0678202E03D0092E01D08B42F6D35A
:1022D0008B4201D28B42B4D3204670BD546F6F2025
:1022E0006D616E7920617267732021205765206FC0
:1022F0006E6C79205573653A0A0000002573200042
:1023000070B5012186B00846FEF714FB01211020AC
:10231000FEF71CFB00248DF8064001208DF8070015
:10232000022540021A4E8DF8055000908DF8045099
:1023300069463046FEF73CFA680200908DF804507A
:1023400069463046FEF734FA07220A213046FEF786
:1023500080FA072209213046FEF77BFA4FF4E1307C
:10236000ADF80C400290ADF80E40ADF81040ADF85D
:1023700014400C20074CADF8120002A92046FEF7CD
:1023800039FC01212046FEF724FC06B070BD000098
:10239000000002400010014010B5044602E003A016
:1023A00000F0DEFC641EFAD210BD00002D0000001B
:1023B00070B5204D04462868844204D2A1221E49EB
:1023C0001EA000F029F96868844204D3A2221A49A9
:1023D00022A000F021F9608820B1A32216492AA08A
:1023E00000F01AF96168286801448C420FD04A88CD
:1023F0006AB96A6891420AD0AA688A4200D1AC6080
:102400004A6862604B6800F10801221A5A50A168BC
:102410000144A1420CD04A88002A09D1AA68A242EC
:1024200000D1A96062684A60091A626808301150D8
:1024300070BD000064000020FC4A00082872745F30
:1024400075696E74385F74202A296D656D203E3D74
:1024500020686561705F7074720000002872745F9C
:1024600075696E74385F74202A296D656D203C2073
:102470002872745F75696E74385F74202A296865E4
:1024800061705F656E6400006D656D2D3E757365EE
:1024900064203D3D203000002DE9F04F85B0994685
:1024A000DDE90EA5109CAB46630602D5DFF814C12A
:1024B00003E0DFF810C1ACF1110CE30601D524F004
:1024C0000104E30701D0302300E020230026049319
:1024D000A3070BD5002A02DA2D26524206E0630735
:1024E00001D52B2602E0230700D520260023EE4647
:1024F00022B930228DF8002001230CE0B9F10A0F37
:1025000014D002F00F0812091CF808800EF803809E
:102510005B1C002AF2D1AB4200DD1D46AAEB05028E
:1025200014F0110F4FF0200708D015E00A27B2FB76
:10253000F7F807FB1828B2FBF7F2E5E73EB1002AEF
:1025400005DD521E03E0884200D20770401CB2F144
:10255000000CA2F10102F6DC26B1884200D206701E
:10256000401C521EE40605D508E0884201D2049CB6
:102570000470401C141EA2F10102F6DC30242E4629
:102580006D1E9E420ADD884200D20470401CF6E7B0
:10259000884201D2E55C0570401C00E074461D1EB7
:1025A000A3F1010307DDBBF1000FF1D103E0884285
:1025B00000D20770401C131EA2F10102F7DC05B027
:1025C000BDE8F08FE34A00081CB514210A20CDE9CC
:1025D00000014FF480730022074908A001F0A9F917
:1025E000040004D1C522074907A000F015F82046D1
:1025F000BDE81C4001F024BBBD1F00086D61696E81
:1026000000000000AC47000874696420213D20529E
:10261000545F4E554C4C000038B500238DF8003007
:10262000094B5C6824B101B0A446BDE83040604766
:1026300013460A46014605A000F092FB9DF80000F3
:102640000028FBD038BD00005C000020282573293D
:1026500020617373657274696F6E206661696C6561
:10266000642061742066756E6374696F6E3A2573B9
:102670002C206C696E65206E756D6265723A2564FA
:10268000200A000070B54843044600F0B9FB05007D
:1026900003D02246002100F0C3FC284670BD000094
:1026A00070B5084C084D0AE008A0216800F058FBFE
:1026B00060688047014609A000F052FB0834AC4234
:1026C000F2D370BD1452000824520008696E697478
:1026D00069616C697A652025730000003A256420E1
:1026E000646F6E650A00000070B50AA000F038FB48
:1026F000104C114D0AE011A0216800F031FB606818
:102700008047014611A000F02BFB0834AC42F2D305
:1027100070BD0000646F20636F6D706F6E656E74C6
:102720007320696E697469616C697A6174696F6E2E
:102730002E0A00002452000834520008696E6974A1
:1027400069616C697A652025730000003A25642070
:10275000646F6E650A00000010B5FDF795FD044A30
:102760005188491C5180BDE81040FDF791BD000023
:10277000EC00002010B5FDF787FD0B4C6188491E69
:1027800009B2618000290ADC00216180FDF780FD2B
:102790006068002807D0BDE8104000F0DBBDBDE850
:1027A0001040FDF775BD10BDEC00002070B50400B1
:1027B0006AD0FDF769FD054600F086FA48B1334955
:1027C00033A000F0CDFA4FF40B7230493AA0FFF776
:1027D00023FF2846FDF75CFDA00705D040F22E221E
:1027E0002A4936A0FFF718FF404D2868844202D3DB
:1027F0006868844205D340F22F2224493C48FFF701
:102800000BFF286884423FD3686884423CD24FF073
:10281000FF3138480C3C00F0B7FE60884FF4F556A5
:1028200010B12088B04219D033A000F099FA238863
:102830006288214637A000F093FA608828B940F2F8
:102840004E2212493FA0FFF7E7FE2088B04205D094
:1028500040F24F220D493EA0FFF7DEFE00206080CF
:102860002680A868844200D2AC6029686068611A3A
:10287000401A2969081A28612046FFF799FDBDE82A
:1028800070401C4800F03EBE70BD0000F44A0008D5
:1028900046756E6374696F6E5B25735D2073686146
:1028A0006C6C206E6F74206265207573656420699E
:1028B0006E204953520A0000300000002828287278
:1028C000745F75626173655F7429726D656D29202F
:1028D00026202852545F414C49474E5F53495A4580
:1028E000202D20312929203D3D203000640000208A
:1028F000FC4D000890040020746F2066726565200E
:102900006120626164206461746120626C6F636B3A
:102910003A0A00006D656D3A203078253038782C01
:10292000207573656420666C61673A2025642C20ED
:102930006D6167696320636F64653A203078253084
:1029400034780A006D656D2D3E7573656400000076
:102950006D656D2D3E6D61676963203D3D20484585
:1029600041505F4D41474943000000000048704717
:10297000B005002000487047B041002010B5FEF7B8
:10298000BFF813484FF47A710068B0FBF1F0401EB5
:10299000B0F1807F0AD24FF0E02148610D4AF0206B
:1029A00082F8140D0020886107200861FDF762FF9E
:1029B000FFF7A6FCFDF7C2FEFFF772FEFFF7DAFF96
:1029C0000446FFF7D3FF2146BDE8104000F0F8BEF3
:1029D000000000200FE000E070B50C4D4FF0FF3418
:1029E00020212846FEF7FFF820B12846FEF758F9C7
:1029F000C4B208E008212846FEF7F5F818B14021D6
:102A00002846FEF7E3F8E0B270BD00000010014078
:102A100070B50546FFF7A0FE0F4C16E00A2809D155
:102A20000D212046FEF740F940212046FEF7DBF855
:102A30000028F9D015F8011B2046FEF735F9802152
:102A40002046FEF7D0F80028F9D028780028E5D1F4
:102A5000BDE87040FFF78EBE0010014070B53149EF
:102A60000546243009682C1D11B18847002857D02D
:102A70002DA0E16B00F074F92FA0216A00F070F92D
:102A800031A0616A00F06CF933A0A16A00F068F926
:102A900035A0E16A00F064F937A0216800F060F920
:102AA00039A0616800F05CF93BA0A16800F058F91A
:102AB0003DA0E16800F054F93FA0216900F050F911
:102AC00041A0616900F04CF943A0A16900F048F908
:102AD00045A0E16900F044F947A0216B00F040F9FE
:102AE00049A0616B00F03CF94BA0A16B00F038F9F4
:102AF0002878400708D501F05DF801464AA000F0AB
:102B00002FF9FFF789F802E04FA000F029F92878A3
:102B1000C00602D453A000F023F9FEF78BFCFEE7B9
:102B200070BD0000440000207073723A2030782598
:102B30003038780A000000007230303A20307825B2
:102B40003038780A000000007230313A20307825A1
:102B50003038780A000000007230323A2030782590
:102B60003038780A000000007230333A203078257F
:102B70003038780A000000007230343A203078256E
:102B80003038780A000000007230353A203078255D
:102B90003038780A000000007230363A203078254C
:102BA0003038780A000000007230373A203078253B
:102BB0003038780A000000007230383A203078252A
:102BC0003038780A000000007230393A2030782519
:102BD0003038780A000000007231303A2030782511
:102BE0003038780A000000007231313A2030782500
:102BF0003038780A000000007231323A20307825EF
:102C00003038780A00000000206C723A20307825B5
:102C10003038780A000000002070633A20307825B0
:102C20003038780A000000006861726420666175BF
:102C30006C74206F6E207468726561643A2025732D
:102C40000D0A0D0A0000000068617264206661755B
:102C50006C74206F6E2068616E646C65720D0A0D75
:102C60000A00000046505520616374697665210DA5
:102C70000A00000070B50446121D22F00700002271
:102C8000094D403840F82250521C102AFAD30162F4
:102C90000021416281624FF0807200F13005C26311
:102CA000C16285E81A0070BDEFBEADDE10B5FDF75C
:102CB000EBFA044A1178491C1170BDE81040FDF789
:102CC000E7BA00005800002010B5FDF7DDFA03490F
:102CD0000C78FDF7DDFA204610BD000058000020FA
:102CE00010B5FDF7D1FA044A1178491E1170BDE8FC
:102CF0001040FDF7CDBA00005800002010B5006864
:102D0000143800F019FF002010BD00002DE9F0413B
:102D1000064614460D46084600F0F0FF05F114077C
:102D2000B4B1012C18D134680EE000BF95F835100D
:102D300094F82120A4F11400914204D239461430B1
:102D400000F033F802E02468B442EFD1B44203D17A
:102D50003946304600F029F80020BDE8F081000037
:102D60000FB4FF2110B503AB0448029A01F0D6FA64
:102D70000248FFF74DFE10BC5DF814FB90030020E5
:102D80000268516002680A6001604860704702682A
:102D9000516002680A6001604860704702685160D3
:102DA00002680A60016048607047426811604268CA
:102DB0004A604160086070470246002100E0491CFB
:102DC00000689042FBD108467047D0E900124A6083
:102DD000D0E900121160406000607047D0E9001235
:102DE0004A60D0E900121160406000607047D0E98D
:102DF00000124A60D0E90012116040600060704724
:102E00002DE9F047040019D0FDF73EFA0546FFF71B
:102E10005BFF48B14F4950A0FFF7A2FF4FF48C72FF
:102E20004C4957A0FFF7F8FB2846FDF731FAE41CA0
:102E300024F00306534CE068864202D90020BDE826
:102E4000F0870C2E00D20C264FF0FF314E4800F0D8
:102E50009BFB2168A068D4F80CC0421AACEB0603B7
:102E600072E08D186F88002F6DD16F68BF1A0C3F0C
:102E7000B74268D36B6806F118079B1A0C3B4FF0FA
:102E800001094FF4F55ABB422BD397190C37CB19D4
:102E90004FF00008A3F800A0A3F80280D5F8048042
:102EA000C3E901826F60A5F802905A680CF10C0C1E
:102EB000624502D001F10803D750226932440C3236
:102EC00022616369934200D26261A5F800A0854245
:102ED0001AD16268438863B190420AD040680844BE
:102EE000F8E7A5F802906A686B1AD21A23691A44A7
:102EF000E6E7A060904207D0408828B14FF4C17245
:102F0000144922A0FFF788FB1F4800F0FBFAA8191C
:102F100061680C30884205D94FF4C3720D492548C9
:102F2000FFF77AFBA8070BD040F287120949224825
:102F3000FFF772FB4FF4C472064920A0FFF76CFB49
:102F400005F10C007BE76A6893428AD80E4800F0CE
:102F5000D9FA73E71B4B000846756E6374696F6E90
:102F60005B25735D207368616C6C206E6F742062EA
:102F700065207573656420696E204953520A00000C
:102F800030000000640000209004002028286C66B7
:102F9000726565203D3D20686561705F656E6429DE
:102FA000207C7C2028216C667265652D3E757365DA
:102FB00064292900584E0008B04D000828282872BE
:102FC000745F75626173655F74296D656D29202674
:102FD000202852545F414C49474E5F53495A45207F
:102FE0002D20312929203D3D2030000010B5034619
:102FF000994211D28C189C420ED9811804E000BF6E
:1030000014F8013D01F8013D521EF9D210BD00BF78
:1030100011F8014B03F8014B521EF9D210BD00000C
:1030200010B50346CCB2042A1AD3810718D1194629
:1030300044EA042343EA034306E008C1103A08C106
:1030400041F8083B41F8043C102AF6D201E008C1DF
:10305000121F042AFBD20B4602E000BF03F8014B0B
:10306000521EFBD210BD00002DE9F0410F4606466E
:10307000FDF70AF90446FFF727FE48B11C491DA0D9
:10308000FFF76EFE4FF4C372194924A0FFF7C4FA8C
:103090002046FDF7FDF8304600F0B8F8050005D1F0
:1030A0004FF4C57212491EA0FFF7B6FAE868FFF7A1
:1030B000A7FE040019D00021EA68FFF7B1FF2672CD
:1030C0000020607208223946204600F065FBFDF7BB
:1030D000DBF8064604F10C01281DFFF751FE3046CF
:1030E000FDF7D6F82046BDE8F0810020FBE70000A0
:1030F000504B000846756E6374696F6E5B25735D97
:10310000207368616C6C206E6F742062652075732B
:10311000656420696E204953520A000030000000A7
:10312000696E666F726D6174696F6E20213D205209
:10313000545F4E554C4C000070B5040005D14FF45F
:10314000DD720F490FA0FFF767FA207A000605D558
:1031500040F2BB120A4910A0FFF75EFA002020726D
:10316000FDF792F8054604F10C00FFF72EFE284605
:10317000FDF78EF82046BDE87040FFF717BB000052
:10318000634B00086F626A65637420213D205254CE
:103190005F4E554C4C00000021286F626A656374D5
:1031A0002D3E7479706520262052545F4F626A6507
:1031B00063745F436C6173735F53746174696329F3
:1031C0000000000070B5040005D14FF4B372094946
:1031D00009A0FFF721FA00202072FDF755F80546F7
:1031E00004F10C00FFF7F1FD2846BDE87040FDF743
:1031F0004FB800003F4B00086F626A65637420217E
:103200003D2052545F4E554C4C000000074A0021AF
:1032100002EB01131B78834202D102EB01107047CD
:10322000491C0729F4DB0020704700007C000020C7
:1032300010B5040005D140F2EF12044904A0FFF7D5
:10324000EBF9207A20F0800010BD00008E4B0008C2
:103250006F626A65637420213D2052545F4E554C65
:103260004C0000002DE9F047064692468846084685
:10327000FFF7CCFF050005D140F23312174918A023
:10328000FFF7CAF9FFF768FA40F243192F1D6C687F
:103290000BE000BFB4F10C0006D0B04204D14A46A6
:1032A0000E4915A0FFF7B8F92468BC42F2D1FFF728
:1032B00061FA48F08000307208225146304600F032
:1032C0006BFAFCF7E1FF044606F10C01281DFFF73D
:1032D00057FD2046BDE8F047FCF7DABF304B000849
:1032E000696E666F726D6174696F6E20213D205248
:1032F000545F4E554C4C00006F626A20213D206F98
:10330000626A65637400000010B5040005D14FF4D3
:10331000EE72054905A0FFF77FF9207A000601D576
:10332000012010BD002010BD744B00086F626A655B
:10333000637420213D2052545F4E554C4C000000D8
:1033400010B5FFF7B3FC00F0ABFDBDE81040FFF790
:10335000C7BC00002DE9F041FCF796FF124D07466F
:103360006888C8B9A868FDF7A5FC1049401E6E68BA
:1033700051F83040143CB4420ED0287020466C60A6
:10338000FDF720FD0A48007804F11C01002806F131
:103390001C0006D0FCF77FFF3846BDE8F041FCF783
:1033A00077BFFCF778FFF7E7EC000020B0040020BF
:1033B0005800002010B5040005D140F21712124940
:1033C00012A0FFF729F9FCF75FFF024694F83400DA
:1033D000134920F00F00401C84F8340094F83500A5
:1033E00001EBC00104F114004B6818604B68A36145
:1033F00048600C486161A16B836819438160BDE836
:1034000010401046FCF744BFCA4B00087468726550
:10341000616420213D2052545F4E554C4C00000009
:10342000B0040020EC00002010B5040005D140F2EB
:103430004512114911A0FFF7EFF8FCF725FF04F141
:103440001401D1E900235360D1E900231A60A1617E
:10345000616194F835200E4951F8323001EBC20118
:103460008B4204D10B49A36B8A689A438A60BDE8FA
:103470001040FCF70DBF0000E44B00087468726553
:10348000616420213D2052545F4E554C4C00000099
:10349000B0040020EC0000202DE9F0411E46154646
:1034A0000F46040004D1D2220C490DA0FFF7B4F856
:1034B000B5F5803F04D3D32208490DA0FFF7ACF83F
:1034C0003A4602212046FFF7CDFE04F11400A06128
:1034D0006061A58366720020BDE8F081D6470008D0
:1034E00073656D20213D2052545F4E554C4C0000B9
:1034F00076616C7565203C20307831303030305545
:103500000000000070B5040005D140F2B712184960
:1035100018A0FFF781F82046FFF78AFE022805D0A1
:103520004FF4DC7212491748FFF776F8FCF7ACFE4F
:103530000546616904F11400814207D0FFF7DEFB04
:103540002846FCF7A5FEFFF705FF09E0A08B4FF624
:10355000FF71884206D2401CA0832846FCF798FEE3
:10356000002070BD2846FCF793FE6FF0020070BD8E
:103570001848000873656D20213D2052545F4E5558
:103580004C4C0000684D00082DE9F341040005D1C2
:103590004FF4A672354936A0FFF73EF82046FFF7F4
:1035A00047FE022805D040F24D1230493448FFF75B
:1035B00033F8FCF769FE0646A08B28B1401EA083B5
:1035C0003046FCF765FE4FE0019840B1FCF75CFE29
:1035D000804600F0EFFA40F26D1538B10FE030464A
:1035E000FCF756FE6FF00100BDE8FC811F4925A0E5
:1035F000FFF7B6FB2A461D4930A0FFF70DF8FCF790
:1036000043FE0746FFF760FB40B118492CA0FFF7C7
:10361000A7FB2A46154929A0FEF7FEFF3846FCF70E
:1036200037FE4046FCF734FE00F0C4FA05460020A1
:103630002863627A294604F11400FFF767FB0198BA
:10364000002809DD05F14C0001AA0021044600F024
:1036500083FC204600F076FD3046FCF719FEFFF7AC
:1036600079FE286B0028BFD10020BDE70C48000878
:1036700073656D20213D2052545F4E554C4C000027
:10368000684D000846756E6374696F6E5B25735DE7
:10369000207368616C6C206E6F7420626520757396
:1036A0006564206265666F72652073636865647522
:1036B0006C65722073746172740A0000300000003F
:1036C00046756E6374696F6E5B25735D2073686108
:1036D0006C6C206E6F742062652075736564206960
:1036E0006E204953520A000008B509A0FFF738FBC5
:1036F0000AA0FFF735FB12A0009005230122032149
:1037000012A0FFF72DFBBDE8084018A0FFF728BB6B
:103710000A205C207C202F0A000000002D2052543B
:10372000202D2020202020546872656164204F7075
:1037300065726174696E672053797374656D0A00F0
:10374000446563202035203230323300202F207C26
:10375000205C202020202025642E25642E25642036
:103760006275696C642025730A00000020323030D5
:1037700036202D203230323020436F7079726967E5
:1037800068742062792072742D7468726561642097
:103790007465616D0A00000010B5002A07D0034669
:1037A00011F8014B03F8014B2CB1521EF8D110BD9A
:1037B00003F8011B00E00021521EF9D110BD0000EA
:1037C0002DE9F0410646C01C0F4620F0030421F00D
:1037D0000305FCF759FD8046FFF776FA40B11B4917
:1037E0001BA0FFF7BDFAD222184923A0FEF714FF51
:1037F0004046FCF74DFD182D21D9A5F11800A04237
:103800001DD3281B1D4D18384FF4F5522C60E8606D
:10381000228000210C30C4E901016180616800232D
:10382000214469600A8001224A804860886014A1AE
:103830001548FFF731FE2868A860BDE8F0813A46D8
:103840003146BDE8F04111A0FFF78ABA074B0008E6
:1038500046756E6374696F6E5B25735D2073686176
:103860006C6C206E6F7420626520757365642069CE
:103870006E204953520A000030000000640000200E
:103880006865617000000000900400206D656D2087
:10389000696E69742C206572726F72206265676947
:1038A0006E206164647265737320307825782C20F3
:1038B000616E6420656E6420616464726573732058
:1038C000307825780A00000010B50A4900230A4C18
:1038D0004B80184604EBC002401C52601260202846
:1038E000F8DB1F20087003484B600C308B60406091
:1038F000006010BDEC000020B004002010B5074CA3
:10390000A068FDF7D7F90649401E51F83000143879
:103910006060BDE810401C30FCF7EBBCEC00002000
:10392000B00400200148406000607047040100209E
:1039300070472DE9FF478946DDE90C76824601464E
:103940001D4690460120FFF78FFB041E0DD0284630
:10395000FFF756FA60B103968DE8A10043464A4648
:1039600051462046FDF78CFA204604B0BDE8F087AA
:103970002046FFF7E1FB0020F7E700F021B9000047
:1039800070B514480468FCF77FFC05462046FDF737
:10399000DEFA2046FFF748FD042084F8340004F1E5
:1039A0004C0000F039FB2046FFF7AEFC01280CD09C
:1039B00004F114010848FFF7EAF900BFFFF7CAFC59
:1039C0002846BDE87040FCF763BC2046FFF7FAFBD1
:1039D000F4E70000F0000020F800002000F002F8FA
:1039E000FCE7000070B5FCF74FFC0446FFF76CF9EC
:1039F00040B1164916A0FFF7B3F9932213491EA050
:103A0000FEF70AFE204612E01C480168A1F11404EA
:103A1000D1E900024260D1E900021060496009600A
:103A20004869FEF7C3FE2046FFF786FB2846FCF7F1
:103A30002FFCFCF729FC0546104801688142E3D1C0
:103A40002846BDE87040FCF723BC0000C0470008D2
:103A500046756E6374696F6E5B25735D2073686174
:103A60006C6C206E6F7420626520757365642069CC
:103A70006E204953520A000030000000F800002078
:103A80001FB5202308481F22D9008DE80F0000230E
:103A9000064A07A1803800F00FF804B00248BDE8DC
:103AA0001040803800F0CCB890020020DD390008CA
:103AB0007469646C650000002DE9FF5F9A46DDE9DA
:103AC0000E48DDE9107693468946050004D1E922C7
:103AD0000D490EA0FEF7A0FD24B9EA220A4910A064
:103AE000FEF79AFD4A4601212846FFF7BBFBCDE9C8
:103AF0000048CDE9027653465A4649462846FDF726
:103B0000BFF904B0BDE8F09F0E4C00087468726500
:103B1000616420213D2052545F4E554C4C00000002
:103B2000737461636B5F737461727420213D205202
:103B3000545F4E554C4C000070B5040005D140F266
:103B4000F722154915A0FEF767FD2046FFF770FB29
:103B5000012805D04FF43E720F491548FEF75CFD71
:103B600094F8340000F00F00022802D04FF0FF302C
:103B700070BDFCF789FB054604F11400FFF72EF930
:103B800004F14C0000F076FB2846FCF781FB204650
:103B9000FFF710FC002070BD9B4C00087468726534
:103BA000616420213D2052545F4E554C4C00000072
:103BB0009C4E00080148006870470000F00000209B
:103BC000F1B5FCF761FB0546154804682CB940F2D5
:103BD000FB12144914A0FEF71FFD2046FFF728FB37
:103BE000012805D04FF4FE720E491448FEF714FD6B
:103BF000204600F083F804F14C006A460021064696
:103C000000F0AAF9304600F09DFA2846FCF740FB88
:103C1000FFF7A0FB206B801C00D120630020F8BDC3
:103C2000F0000020514C0008746872656164202126
:103C30003D2052545F4E554C4C0000009C4E0008F5
:103C400010B5040005D140F20D12164916A0FEF77A
:103C5000E3FC94F83400000705D04FF48772114953
:103C600016A0FEF7D9FC2046FFF7E2FA012805D09E
:103C700040F20F120B491F48FEF7CEFC94F83600B5
:103C8000012184F8350081400220A16384F83400CA
:103C90002046FFF751FF1848006808B1FFF75AFBAC
:103CA000002010BD1D4C00087468726561642021FD
:103CB0003D2052545F4E554C4C00000028746872F1
:103CC0006561642D3E7374617420262052545F54E4
:103CD00048524541445F535441545F4D41534B2931
:103CE000203D3D2052545F5448524541445F494E67
:103CF000495400009C4E0008F000002070B50400FC
:103D000005D140F2CD22174917A0FEF785FC2046C9
:103D1000FFF78EFA012805D040F2CE22114917484C
:103D2000FEF77AFC94F8340000F00F00012802D06E
:103D30004FF0FF3070BDFCF7A7FA05462046FFF7AD
:103D400073FB94F8340020F00F00801C84F83400DA
:103D500004F14C0000F08EFA2846FCF799FA002096
:103D600070BD0000894C0008746872656164202190
:103D70003D2052545F4E554C4C0000009C4E0008B4
:103D800010B5040005D140F22332144914A0FEF707
:103D900043FC94F8340000F00F00022805D04FF4E3
:103DA00049720E4913A0FEF737FC2046FFF740FA90
:103DB000012805D040F2253208491D48FEF72CFCA9
:103DC0006FF00100206304F11400FFF707F82046AC
:103DD000FFF7F0FABDE81040FFF7BCBAAC4C0008A2
:103DE00074687265616420213D2052545F4E554CC9
:103DF0004C000000287468726561642D3E73746124
:103E00007420262052545F5448524541445F535415
:103E100041545F4D41534B29203D3D2052545F5446
:103E200048524541445F53555350454E44000000AD
:103E30009C4E000870B5FCF727FA06461348046844
:103E400094F8340000F00F00012819D1D4E90501DD
:103E5000884215D004F114000546FEF7BFFF94F820
:103E600035000B4901EBC00041680D604168696095
:103E7000456028603046FCF70BFAFFF76BFA02E06A
:103E80003046FCF705FA002070BD0000F00000206D
:103E9000B004002001480068704700005400002072
:103EA000094810B50168491C0160FFF783FE816C69
:103EB000491E816403D1416C8164FFF7BBFFBDE8FB
:103EC000104000F003B80000540000202DE9FC4130
:103ED000CDF804D0CDF800D0FFF7DCFF0646FCF7A4
:103EE000D3F907461B4D2DE060696FF00041301A91
:103EF000143C884229D22046FDF726F8607A8107D3
:103F000002D420F00100607204F114018846684672
:103F1000FEF744FFD4E907108847FFF7BBFF0646CA
:103F20000098694688420DD04046FEF760FF607AEF
:103F3000810707D5C10705D020F001006072204637
:103F400000F000F92C68AC42CED13846FCF7A0F95D
:103F5000BDE8FC810401002070B515460E46040042
:103F600005D140F2D912174917A0FEF755FB20469C
:103F7000FFF75EF90A2805D04FF4ED72114917A03A
:103F8000FEF74AFBFCF780F9052E17D2DFE806F0B2
:103F90000503080C1100616A0FE0296861620DE0F9
:103FA000617A21F0020102E0617A41F0020161725E
:103FB00004E0617AC90700D001212960FCF768F9A3
:103FC000002070BD094D000874696D657220213DA7
:103FD0002052545F4E554C4C0000000072745F6FCD
:103FE000626A6563745F6765745F747970652826BB
:103FF00074696D65722D3E706172656E7429203D25
:104000003D2052545F4F626A6563745F436C617315
:10401000735F54696D65720070B5040004D1DD22D0
:10402000144915A0FEF7F8FA2046FFF701F90A280F
:1040300004D0DE220F4915A0FEF7EEFA2046FFF766
:1040400063F920B9DF220B491FA0FEF7E5FAFCF760
:104050001BF905462046FCF777FF607A20F0010047
:1040600060722846FCF714F92046FFF7ABF80020F1
:1040700070BD0000CC4C000874696D657220213D54
:104080002052545F4E554C4C0000000072745F6F1C
:10409000626A6563745F6765745F7479706528260A
:1040A00074696D65722D3E706172656E7429203D74
:1040B0003D2052545F4F626A6563745F436C617365
:1040C000735F54696D65720072745F6F626A6563D5
:1040D000745F69735F73797374656D6F626A65632A
:1040E00074282674696D65722D3E706172656E74F8
:1040F000290000002DE9F8431E46DDE908959046A9
:104100000F46040004D1C922084909A0FEF784FA29
:104110003A460A212046FFF7A5F84B46324641466B
:1041200020460095FCF702FFBDE8F883BE4C00086E
:1041300074696D657220213D2052545F4E554C4C80
:10414000000000002DE9F843040005D140F24112BF
:1041500029492AA0FEF760FA2046FFF769F80A28E5
:1041600005D04FF4A172244929A0FEF755FAFCF7B7
:104170008BF880462046FCF7E7FE607A6FF000453A
:1041800020F001006072606AA84205D340F251122B
:1041900019492EA0FEF740FAFFF77CFE616A344A07
:1041A0004318A3620020009202EBC00269465768E0
:1041B0005DF820200AE01268A2EBC00676699E42F4
:1041C00002D0F61AAE4203D341F82020BA42F2D10F
:1041D0002748001F0168491C016004F11401009880
:1041E000FEF7DCFD607A40F0010060724046FCF7AB
:1041F0004FF80020BDE8F883EC4C000874696D6549
:104200007220213D2052545F4E554C4C000000005E
:1042100072745F6F626A6563745F6765745F7479F7
:104220007065282674696D65722D3E706172656EC9
:104230007429203D3D2052545F4F626A6563745F6C
:10424000436C6173735F54696D65720074696D6569
:10425000722D3E696E69745F7469636B203C2052F5
:10426000545F5449434B5F4D4158202F203200008A
:104270000401002070B5040005D14FF4DB7212492F
:1042800012A0FEF7C9F92046FEF7D2FF0A2805D092
:1042900040F2B7120C4912A0FEF7BEF9607AC007CF
:1042A0000ED0FBF7F1FF05462046FCF74DFE607A85
:1042B00020F0010060722846FBF7EAFF002070BD85
:1042C0004FF0FF3070BD0000FB4C000874696D6555
:1042D0007220213D2052545F4E554C4C000000008E
:1042E00072745F6F626A6563745F6765745F747927
:1042F0007065282674696D65722D3E706172656EF9
:104300007429203D3D2052545F4F626A6563745F9B
:10431000436C6173735F54696D6572002DE9FF4FE3
:104320008946044600EB090783B080464FF0FF3A08
:104330004FF0200BA74202D25746C8F1FF390BE1DC
:10434000252803D0BC4200D2207080E000260599C9
:10435000491C059108782D2811D02B2812D020282F
:1043600013D0232814D0302815D00A785546303A77
:104370000A2A13D205A800F049F905461AE046F0CA
:104380001006E4E746F00406E1E746F00806DEE73B
:1043900046F02006DBE746F00106D8E72A2809D1D7
:1043A0000698491C059120C80690002D02DA6D423E
:1043B00046F010060598D44601782E2918D1401CE5
:1043C00005900178A1F130020A2A04D205A800F074
:1043D0001DF9844607E02A2908D1401C059006985B
:1043E00050F804CB0690BCF1000F01DA4FF0000C3E
:1043F000059A00201178682901D06C2902D1521C3D
:104400000846059211780A236F2974D00CDC6329C1
:104410001FD004DC25296FD058290DD184E06429F0
:1044200001D0692908D183E0702966D073292CD086
:1044300075297FD0782979D0BC4201D225202070FF
:104440000598641C0178E9B3BC4200D22170641C59
:104450007FE0F00608D458466D1E002D04DDBC42F6
:1044600000D22070641CF7E70698BC4210F8041BC9
:10447000069000D22170584602E0BC4200D2207063
:10448000641C6D1E002DF8DC63E0069802C80690DF
:1044900001B941A1002000E0401CA84202D00A5C02
:1044A000002AF9D1BCF1000F02DD604500DD604655
:1044B000F2060BD45A462B466D1E834206DDBC42E3
:1044C00002D200E054E02270641CF4E7002206E00F
:1044D000BC4201D20B782370491C521C641C8242DE
:1044E000F6DB5A4629466D1E814232DDBC4200D2BF
:1044F0002270641CF6E715E010E0681C02D1082564
:1045000046F00106CDE9005C06980296102304C827
:1045100006903946204619E00CE007E0BC4296D2EE
:10452000252011E7082305E046F04006102301E0AE
:1045300046F002066C2801D068281CD0069804C8F2
:104540000690CDE9005C394620460296FDF7A4FFAF
:1045500004460598401C05900598007800287FF4D3
:10456000EFAEB9F1000F11D0BC420DD220700DE0BA
:10457000401E0590EDE7069830F8041B06908AB2BD
:10458000B007DED512B2DCE707F8010C07B0A4EBE8
:104590000800BDE8F08F0000284E554C4C29000063
:1045A00000207047002070470020704700207047AF
:1045B00010B5FBF769FEFEF7E1F9FFF795F8FFF795
:1045C000B1F9FFF781F9FDF7FFFFFFF7B1F9FFF749
:1045D00057FAFFF793F9002010BD000070B50546AB
:1045E00004680BE0A4F1140106A0FEF7B9FB2068F3
:1045F000A84202D004A0FEF7B3FB2468AC42F1D17C
:1046000070BD0000257300002F00000010B50146AA
:1046100000206FF02F0307E0541C0C60127800EBB1
:10462000800003EB400010440A681478303C0A2CE8
:10463000F2D310BD0020704710B518A0FEF790FB14
:104640001A4C21881AA0FEF78BFB2088C00702D0E5
:104650001DA0FEF785FB2088800702D51DA0FEF770
:104660007FFB2088400702D51DA0FEF779FB20883C
:10467000000702D51CA0FEF773FB2088C00502D5F9
:104680001BA0FEF76DFB2088800502D51BA0FEF75E
:1046900067FBBDE8104004A0FEF762BB757361675D
:1046A00065206661756C743A0A0000002AED00E02E
:1046B0005343425F434653525F554653523A307814
:1046C0002530325820000000554E444546494E538F
:1046D00054522000494E5653544154452000000086
:1046E000494E5650432000004E4F435020000000DA
:1046F000554E414C49474E454420000044495642DE
:10470000595A45524F20000010B5FEF7EDFF00202A
:1047100010BD5F6D73685F657865635F636D64008E
:1047200066696E73685F73797374656D5F696E69CE
:10473000740066696E73685F6765745F70726F6D31
:1047400070745F6D6F64650066696E73685F736532
:10475000745F70726F6D70745F6D6F646500666911
:104760006E73685F7365745F6563686F0066696E1A
:1047700073685F6765745F6563686F007274695F13
:104780007374617274007274695F626F6172645FE6
:104790007374617274007274695F626F6172645FD6
:1047A000656E64007274695F656E640072745F6147
:1047B00070706C69636174696F6E5F696E697400B3
:1047C00072745F7468726561645F69646C655F656B
:1047D00078637574650072745F73656D5F696E6987
:1047E000740072745F73656D5F6465746163680003
:1047F00072745F73656D5F63726561746500727476
:104800005F73656D5F64656C6574650072745F737A
:10481000656D5F74616B650072745F73656D5F7267
:10482000656C656173650072745F73656D5F636F5E
:104830006E74726F6C0072745F6D757465785F6909
:104840006E69740072745F6D757465785F64657409
:104850006163680072745F6D757465785F6372651B
:104860006174650072745F6D757465785F64656C02
:104870006574650072745F6D757465785F74616BE3
:10488000650072745F6D757465785F72656C6561E3
:1048900073650072745F6D757465785F636F6E74B5
:1048A000726F6C0072745F6576656E745F696E69B5
:1048B000740072745F6576656E745F6465746163BD
:1048C000680072745F6576656E745F6372656174AB
:1048D000650072745F6576656E745F64656C65749F
:1048E000650072745F6576656E745F73656E6400F3
:1048F00072745F6576656E745F726563760072745C
:104900005F6576656E745F636F6E74726F6C007254
:10491000745F6D625F696E69740072745F6D625F6F
:104920006465746163680072745F6D625F63726571
:104930006174650072745F6D625F64656C65746557
:104940000072745F6D625F73656E645F7761697436
:104950000072745F6D625F726563760072745F6D82
:10496000625F636F6E74726F6C0072745F6D715F03
:10497000696E69740072745F6D715F646574616300
:10498000680072745F6D715F637265617465007257
:10499000745F6D715F64656C6574650072745F6DE2
:1049A000715F73656E645F776169740072745F6DC7
:1049B000715F757267656E740072745F6D715F729E
:1049C0006563760072745F6D715F636F6E74726F92
:1049D0006C00000001000200010003000100020061
:1049E00001000400010002000100030001000200B8
:1049F00001000500010002000100030001000200A7
:104A00000100040001000200010003000100020097
:104A10000100060001000200010003000100020085
:104A20000100040001000200010003000100020077
:104A30000100050001000200010003000100020066
:104A40000100040001000200010003000100020057
:104A50000100070001000200010003000100020044
:104A60000100040001000200010003000100020037
:104A70000100050001000200010003000100020026
:104A80000100040001000200010003000100020017
:104A90000100060001000200010003000100020005
:104AA00001000400010002000100030001000200F7
:104AB00001000500010002000100030001000200E6
:104AC00001000400010002000100030001000200D7
:104AD000010030313233343536373839616263643E
:104AE0006566003031323334353637383941424328
:104AF0004445460072745F6672656500706C756748
:104B00005F686F6C65730072745F73797374656D41
:104B10005F686561705F696E69740072745F6D6172
:104B20006C6C6F630072745F7265616C6C6F6300B4
:104B300072745F6F626A6563745F696E6974007234
:104B4000745F6F626A6563745F6465746163680053
:104B500072745F6F626A6563745F616C6C6F6361CE
:104B600074650072745F6F626A6563745F64656C1C
:104B70006574650072745F6F626A6563745F697300
:104B80005F73797374656D6F626A656374007274C4
:104B90005F6F626A6563745F6765745F747970657F
:104BA0000072745F6F626A6563745F66696E640049
:104BB0005F72745F7363686564756C65725F73744C
:104BC00061636B5F636865636B0072745F736368D6
:104BD0006564756C655F696E736572745F74687225
:104BE0006561640072745F7363686564756C655FAA
:104BF00072656D6F76655F746872656164005F727F
:104C0000745F7468726561645F696E697400727460
:104C10005F7468726561645F696E69740072745F65
:104C20007468726561645F73746172747570007228
:104C3000745F7468726561645F6465746163680061
:104C400072745F7468726561645F64656C657465D5
:104C50000072745F7468726561645F736C6565701F
:104C60000072745F7468726561645F64656C617919
:104C70005F756E74696C0072745F746872656164EC
:104C80005F636F6E74726F6C0072745F74687265CC
:104C900061645F73757370656E640072745F7468CD
:104CA000726561645F726573756D650072745F74BF
:104CB00068726561645F74696D656F7574007274A4
:104CC0005F74696D65725F696E69740072745F7498
:104CD000696D65725F6465746163680072745F74A6
:104CE000696D65725F64656C6574650072745F748C
:104CF000696D65725F73746172740072745F746958
:104D00006D65725F73746F700072745F74696D6546
:104D1000725F636F6E74726F6C00756172745F693D
:104D20006E697400252D2A2E7320707269202073FD
:104D3000746174757320202020202073702020203F
:104D40002020737461636B2073697A65206D6178CC
:104D50002075736564206C656674207469636B20CC
:104D6000206572726F720A0072745F6F626A6563A7
:104D7000745F6765745F74797065282673656D2D3F
:104D80003E706172656E742E706172656E7429205A
:104D90003D3D2052545F4F626A6563745F436C61AE
:104DA00073735F53656D6170686F7265000000001A
:104DB0002872745F75626173655F74292828727444
:104DC0005F75696E74385F74202A296D656D202BBC
:104DD0002053495A454F465F5354525543545F4DF3
:104DE000454D2920252052545F414C49474E5F5381
:104DF000495A45203D3D2030000000002872745F74
:104E000075696E74385F74202A29726D656D203E55
:104E10003D202872745F75696E74385F74202A298A
:104E2000686561705F707472202626202872745F36
:104E300075696E74385F74202A29726D656D203C27
:104E4000202872745F75696E74385F74202A29682F
:104E50006561705F656E64002872745F756261736E
:104E6000655F74296D656D202B2053495A454F4667
:104E70005F5354525543545F4D454D202B20736969
:104E80007A65203C3D202872745F75626173655FAE
:104E90007429686561705F656E64000072745F6F8D
:104EA000626A6563745F6765745F747970652828EA
:104EB00072745F6F626A6563745F74297468726587
:104EC000616429203D3D2052545F4F626A656374DE
:104ED0005F436C6173735F546872656164006865F9
:104EE0006C6C6F007361792068656C6C6F20776FF4
:104EF000726C640076657273696F6E0073686F77A9
:104F00002052542D5468726561642076657273690D
:104F10006F6E20696E666F726D6174696F6E005F8F
:104F20005F636D645F76657273696F6E0073686F3F
:104F3000772052542D5468726561642076657273CF
:104F4000696F6E20696E666F726D6174696F6E0055
:104F50006C6973745F746872656164006C69737402
:104F600020746872656164005F5F636D645F6C6983
:104F700073745F746872656164006C697374207423
:104F80006872656164006C6973745F73656D006C51
:104F90006973742073656D6170686F726520696EE6
:104FA0002073797374656D005F5F636D645F6C6916
:104FB00073745F73656D006C6973742073656D61E4
:104FC00070686F726520696E2073797374656D0007
:104FD0006C6973745F6576656E74006C69737420B8
:104FE0006576656E7420696E2073797374656D00E3
:104FF0005F5F636D645F6C6973745F6576656E7423
:10500000006C697374206576656E7420696E207318
:10501000797374656D006C6973745F6D7574657810
:10502000006C697374206D7574657820696E2073E7
:10503000797374656D005F5F636D645F6C69737431
:105040005F6D75746578006C697374206D75746537
:105050007820696E2073797374656D006C69737460
:105060005F6D61696C626F78006C697374206D614B
:10507000696C20626F7820696E2073797374656D36
:10508000005F5F636D645F6C6973745F6D61696C11
:10509000626F78006C697374206D61696C20626F57
:1050A0007820696E2073797374656D006C69737410
:1050B0005F6D73677175657565006C697374206DDC
:1050C00065737361676520717565756520696E200C
:1050D00073797374656D005F5F636D645F6C697392
:1050E000745F6D73677175657565006C69737420A5
:1050F0006D65737361676520717565756520696E8F
:105100002073797374656D006C6973745F74696D75
:105110006572006C6973742074696D657220696EC4
:105120002073797374656D005F5F636D645F6C6994
:1051300073745F74696D6572006C6973742074694F
:105140006D657220696E2073797374656D006C698A
:105150007374006C69737420616C6C2073796D6278
:105160006F6C20696E2073797374656D005F5F6387
:105170006D645F68656C700052542D54687265618F
:1051800064207368656C6C2068656C702E005F5FCE
:10519000636D645F7073004C69737420746872652A
:1051A00061647320696E2074686520737973746517
:1051B0006D2E005F5F636D645F66726565005368A6
:1051C0006F7720746865206D656D6F7279207573D7
:1051D00061676520696E20746865207379737465F2
:1051E0006D2E006C6973745F6D656D006C6973740E
:1051F000206D656D6F727920757361676520696ECA
:10520000666F726D6174696F6E0000007C47000804
:10521000AD45000886470008A54500081A4D00085E
:105220003546000896470008A145000820470008B9
:1052300015110008A4470008A9450008DE4E000823
:10524000E44E0008AD140008F44E0008FC4E0008BF
:10525000094700081F4F00082D4F000809470008A4
:10526000504F00085C4F0008191C0008684F0008E8
:105270007A4F0008191C0008864F00088F4F00085D
:10528000FD1A0008A84F0008B74F0008FD1A0008D3
:10529000D04F0008DB4F000871150008F04F0008E0
:1052A0000150000871150008165000082150000830
:1052B000051A00083650000847500008051A000873
:1052C0005C500008695000082D1700088150000844
:1052D000945000082D170008AC500008BA50000880
:1052E000DD180008D7500008EB500008DD18000852
:1052F0000851000813510008D11D0008285100086A
:1053000039510008D11D00084E51000853510008C2
:105310000D1500086D51000878510008B5210008EE
:105320008E510008975100085F100008B351000823
:10533000BE51000855100008E3510008EC51000868
:105340007118000864530008000000200C010000E0
:10535000E8010008705400080C0100200447000018
:10536000040200080095BA0A0000000000000000D6
:1053700001020304060708090000000001020304FB
:1053800001020304060708090000000000000000F5
:10539000000000000000000000000000000000000D
:1053A00000000000000000000000000000000000FD
:1053B00000000000000000000000000000000000ED
:1053C00000000000000000000000000000000000DD
:1053D00000000000000000000000000000000000CD
:1053E00001000000800000208000002080000000FC
:1053F000020000009000002090000020200000002B
:1054000003000000A0000020A000002024000000F5
:1054100004000000B0000020B000002020000000C8
:1054200005000000C0000020C00000203000000087
:1054300006000000D0000020D00000203C0000004A
:105440000A000000E0000020E00000202C00000026
:10545000000000000000000000000000000000004C
:10546000000000000000000000000000000000003C
:04000005080001AD41
:00000001FF
